{
  "contractName": "Shipment",
  "abi": [
    {
      "inputs": [],
      "name": "IDd",
      "outputs": [
        {
          "internalType": "uint256",
          "name": "",
          "type": "uint256"
        }
      ],
      "stateMutability": "view",
      "type": "function",
      "constant": true
    },
    {
      "inputs": [],
      "name": "IDm",
      "outputs": [
        {
          "internalType": "uint256",
          "name": "",
          "type": "uint256"
        }
      ],
      "stateMutability": "view",
      "type": "function",
      "constant": true
    },
    {
      "inputs": [],
      "name": "IDr",
      "outputs": [
        {
          "internalType": "uint256",
          "name": "",
          "type": "uint256"
        }
      ],
      "stateMutability": "view",
      "type": "function",
      "constant": true
    },
    {
      "inputs": [
        {
          "internalType": "address",
          "name": "",
          "type": "address"
        }
      ],
      "name": "distriRegis",
      "outputs": [
        {
          "internalType": "bool",
          "name": "",
          "type": "bool"
        }
      ],
      "stateMutability": "view",
      "type": "function",
      "constant": true
    },
    {
      "inputs": [
        {
          "internalType": "address",
          "name": "",
          "type": "address"
        }
      ],
      "name": "distriRegisid",
      "outputs": [
        {
          "internalType": "uint256",
          "name": "",
          "type": "uint256"
        }
      ],
      "stateMutability": "view",
      "type": "function",
      "constant": true
    },
    {
      "inputs": [
        {
          "internalType": "address",
          "name": "",
          "type": "address"
        },
        {
          "internalType": "uint256",
          "name": "",
          "type": "uint256"
        }
      ],
      "name": "distrishipment",
      "outputs": [
        {
          "internalType": "uint256",
          "name": "",
          "type": "uint256"
        }
      ],
      "stateMutability": "view",
      "type": "function",
      "constant": true
    },
    {
      "inputs": [
        {
          "internalType": "address",
          "name": "",
          "type": "address"
        }
      ],
      "name": "manufacRegis",
      "outputs": [
        {
          "internalType": "bool",
          "name": "",
          "type": "bool"
        }
      ],
      "stateMutability": "view",
      "type": "function",
      "constant": true
    },
    {
      "inputs": [
        {
          "internalType": "address",
          "name": "",
          "type": "address"
        }
      ],
      "name": "manufacRegisid",
      "outputs": [
        {
          "internalType": "uint256",
          "name": "",
          "type": "uint256"
        }
      ],
      "stateMutability": "view",
      "type": "function",
      "constant": true
    },
    {
      "inputs": [
        {
          "internalType": "address",
          "name": "",
          "type": "address"
        },
        {
          "internalType": "uint256",
          "name": "",
          "type": "uint256"
        }
      ],
      "name": "manushipment",
      "outputs": [
        {
          "internalType": "uint256",
          "name": "",
          "type": "uint256"
        }
      ],
      "stateMutability": "view",
      "type": "function",
      "constant": true
    },
    {
      "inputs": [
        {
          "internalType": "address",
          "name": "",
          "type": "address"
        }
      ],
      "name": "retailRegis",
      "outputs": [
        {
          "internalType": "bool",
          "name": "",
          "type": "bool"
        }
      ],
      "stateMutability": "view",
      "type": "function",
      "constant": true
    },
    {
      "inputs": [
        {
          "internalType": "address",
          "name": "",
          "type": "address"
        }
      ],
      "name": "retailRegisid",
      "outputs": [
        {
          "internalType": "uint256",
          "name": "",
          "type": "uint256"
        }
      ],
      "stateMutability": "view",
      "type": "function",
      "constant": true
    },
    {
      "inputs": [
        {
          "internalType": "address",
          "name": "",
          "type": "address"
        },
        {
          "internalType": "uint256",
          "name": "",
          "type": "uint256"
        }
      ],
      "name": "retailshipment",
      "outputs": [
        {
          "internalType": "uint256",
          "name": "",
          "type": "uint256"
        }
      ],
      "stateMutability": "view",
      "type": "function",
      "constant": true
    },
    {
      "inputs": [],
      "name": "shipmentid",
      "outputs": [
        {
          "internalType": "uint256",
          "name": "",
          "type": "uint256"
        }
      ],
      "stateMutability": "view",
      "type": "function",
      "constant": true
    },
    {
      "inputs": [
        {
          "internalType": "uint256",
          "name": "",
          "type": "uint256"
        }
      ],
      "name": "shipments",
      "outputs": [
        {
          "internalType": "uint256",
          "name": "id",
          "type": "uint256"
        },
        {
          "components": [
            {
              "internalType": "uint256",
              "name": "ID",
              "type": "uint256"
            },
            {
              "internalType": "address",
              "name": "add",
              "type": "address"
            },
            {
              "internalType": "string",
              "name": "name",
              "type": "string"
            },
            {
              "internalType": "uint256",
              "name": "phno",
              "type": "uint256"
            },
            {
              "internalType": "string",
              "name": "companyname",
              "type": "string"
            }
          ],
          "internalType": "struct Shipment.Manudetail",
          "name": "manudetails",
          "type": "tuple"
        },
        {
          "components": [
            {
              "internalType": "uint256",
              "name": "ID",
              "type": "uint256"
            },
            {
              "internalType": "address",
              "name": "add",
              "type": "address"
            },
            {
              "internalType": "string",
              "name": "name",
              "type": "string"
            },
            {
              "internalType": "uint256",
              "name": "phno",
              "type": "uint256"
            },
            {
              "internalType": "uint256",
              "name": "price",
              "type": "uint256"
            },
            {
              "internalType": "bool",
              "name": "inicondition",
              "type": "bool"
            }
          ],
          "internalType": "struct Shipment.Distridetail",
          "name": "distridetails",
          "type": "tuple"
        },
        {
          "components": [
            {
              "internalType": "uint256",
              "name": "ID",
              "type": "uint256"
            },
            {
              "internalType": "address",
              "name": "add",
              "type": "address"
            },
            {
              "internalType": "string",
              "name": "name",
              "type": "string"
            },
            {
              "internalType": "uint256",
              "name": "phno",
              "type": "uint256"
            },
            {
              "internalType": "uint256",
              "name": "price",
              "type": "uint256"
            },
            {
              "internalType": "bool",
              "name": "inicondition",
              "type": "bool"
            }
          ],
          "internalType": "struct Shipment.Retaildetail",
          "name": "retaildetails",
          "type": "tuple"
        }
      ],
      "stateMutability": "view",
      "type": "function",
      "constant": true
    },
    {
      "inputs": [
        {
          "internalType": "string",
          "name": "_name",
          "type": "string"
        },
        {
          "internalType": "string",
          "name": "_phno",
          "type": "string"
        },
        {
          "internalType": "string",
          "name": "_companyname",
          "type": "string"
        }
      ],
      "name": "registerManufacturer",
      "outputs": [],
      "stateMutability": "nonpayable",
      "type": "function"
    },
    {
      "inputs": [
        {
          "internalType": "string",
          "name": "_name",
          "type": "string"
        },
        {
          "internalType": "string",
          "name": "_verification",
          "type": "string"
        },
        {
          "internalType": "string",
          "name": "_phno",
          "type": "string"
        }
      ],
      "name": "registerDistributer",
      "outputs": [],
      "stateMutability": "nonpayable",
      "type": "function"
    },
    {
      "inputs": [
        {
          "internalType": "string",
          "name": "_name",
          "type": "string"
        },
        {
          "internalType": "string",
          "name": "_verification",
          "type": "string"
        },
        {
          "internalType": "string",
          "name": "_phno",
          "type": "string"
        }
      ],
      "name": "registerRetailer",
      "outputs": [],
      "stateMutability": "nonpayable",
      "type": "function"
    },
    {
      "inputs": [],
      "name": "existmanu",
      "outputs": [
        {
          "internalType": "bool",
          "name": "",
          "type": "bool"
        }
      ],
      "stateMutability": "view",
      "type": "function",
      "constant": true
    },
    {
      "inputs": [],
      "name": "exisdistri",
      "outputs": [
        {
          "internalType": "bool",
          "name": "",
          "type": "bool"
        }
      ],
      "stateMutability": "view",
      "type": "function",
      "constant": true
    },
    {
      "inputs": [],
      "name": "existretail",
      "outputs": [
        {
          "internalType": "bool",
          "name": "",
          "type": "bool"
        }
      ],
      "stateMutability": "view",
      "type": "function",
      "constant": true
    },
    {
      "inputs": [
        {
          "internalType": "address",
          "name": "_address",
          "type": "address"
        }
      ],
      "name": "showdistributershipment",
      "outputs": [
        {
          "internalType": "uint256[]",
          "name": "",
          "type": "uint256[]"
        }
      ],
      "stateMutability": "view",
      "type": "function",
      "constant": true
    },
    {
      "inputs": [
        {
          "internalType": "address",
          "name": "_address",
          "type": "address"
        }
      ],
      "name": "showmanufactshipment",
      "outputs": [
        {
          "internalType": "uint256[]",
          "name": "",
          "type": "uint256[]"
        }
      ],
      "stateMutability": "view",
      "type": "function",
      "constant": true
    },
    {
      "inputs": [
        {
          "internalType": "address",
          "name": "_address",
          "type": "address"
        }
      ],
      "name": "showretailershipment",
      "outputs": [
        {
          "internalType": "uint256[]",
          "name": "",
          "type": "uint256[]"
        }
      ],
      "stateMutability": "view",
      "type": "function",
      "constant": true
    },
    {
      "inputs": [
        {
          "internalType": "uint256",
          "name": "_shipmentid",
          "type": "uint256"
        }
      ],
      "name": "payToManufacturer",
      "outputs": [],
      "stateMutability": "payable",
      "type": "function",
      "payable": true
    },
    {
      "inputs": [
        {
          "internalType": "string",
          "name": "_manuName",
          "type": "string"
        },
        {
          "internalType": "uint256",
          "name": "_manuPhNo",
          "type": "uint256"
        },
        {
          "internalType": "string",
          "name": "_manuCompanyName",
          "type": "string"
        },
        {
          "internalType": "address",
          "name": "_distriAddress",
          "type": "address"
        },
        {
          "internalType": "string",
          "name": "_distriName",
          "type": "string"
        },
        {
          "internalType": "uint256",
          "name": "_distriPhNo",
          "type": "uint256"
        },
        {
          "internalType": "uint256",
          "name": "_distriPrice",
          "type": "uint256"
        },
        {
          "internalType": "bool",
          "name": "_distriInCondition",
          "type": "bool"
        }
      ],
      "name": "createShipment",
      "outputs": [],
      "stateMutability": "nonpayable",
      "type": "function"
    },
    {
      "inputs": [
        {
          "internalType": "uint256",
          "name": "_id",
          "type": "uint256"
        }
      ],
      "name": "recievedbydistri",
      "outputs": [],
      "stateMutability": "nonpayable",
      "type": "function"
    },
    {
      "inputs": [
        {
          "internalType": "uint256",
          "name": "_shipmentid",
          "type": "uint256"
        }
      ],
      "name": "withdrawFundsByManufacturer",
      "outputs": [],
      "stateMutability": "payable",
      "type": "function",
      "payable": true
    },
    {
      "inputs": [
        {
          "internalType": "uint256",
          "name": "_shipmentid",
          "type": "uint256"
        }
      ],
      "name": "withdrawback1",
      "outputs": [],
      "stateMutability": "payable",
      "type": "function",
      "payable": true
    },
    {
      "inputs": [
        {
          "internalType": "uint256",
          "name": "_shipmentid",
          "type": "uint256"
        },
        {
          "internalType": "address",
          "name": "_retailAddress",
          "type": "address"
        },
        {
          "internalType": "string",
          "name": "_retailName",
          "type": "string"
        },
        {
          "internalType": "uint256",
          "name": "_retailPhNo",
          "type": "uint256"
        },
        {
          "internalType": "uint256",
          "name": "_retailPrice",
          "type": "uint256"
        },
        {
          "internalType": "bool",
          "name": "_retailInCondition",
          "type": "bool"
        }
      ],
      "name": "distritoretail",
      "outputs": [],
      "stateMutability": "nonpayable",
      "type": "function"
    },
    {
      "inputs": [
        {
          "internalType": "uint256",
          "name": "_shipmentid",
          "type": "uint256"
        }
      ],
      "name": "payTodistributer",
      "outputs": [],
      "stateMutability": "payable",
      "type": "function",
      "payable": true
    },
    {
      "inputs": [
        {
          "internalType": "uint256",
          "name": "_id",
          "type": "uint256"
        }
      ],
      "name": "recievedbyretailer",
      "outputs": [],
      "stateMutability": "nonpayable",
      "type": "function"
    },
    {
      "inputs": [
        {
          "internalType": "uint256",
          "name": "_shipmentid",
          "type": "uint256"
        }
      ],
      "name": "withdrawFundsByDistributer",
      "outputs": [],
      "stateMutability": "payable",
      "type": "function",
      "payable": true
    },
    {
      "inputs": [
        {
          "internalType": "uint256",
          "name": "_shipmentid",
          "type": "uint256"
        }
      ],
      "name": "withdrawback2",
      "outputs": [],
      "stateMutability": "payable",
      "type": "function",
      "payable": true
    },
    {
      "inputs": [],
      "name": "shipmentlist",
      "outputs": [
        {
          "components": [
            {
              "internalType": "uint256",
              "name": "id",
              "type": "uint256"
            },
            {
              "components": [
                {
                  "internalType": "uint256",
                  "name": "ID",
                  "type": "uint256"
                },
                {
                  "internalType": "address",
                  "name": "add",
                  "type": "address"
                },
                {
                  "internalType": "string",
                  "name": "name",
                  "type": "string"
                },
                {
                  "internalType": "uint256",
                  "name": "phno",
                  "type": "uint256"
                },
                {
                  "internalType": "string",
                  "name": "companyname",
                  "type": "string"
                }
              ],
              "internalType": "struct Shipment.Manudetail",
              "name": "manudetails",
              "type": "tuple"
            },
            {
              "components": [
                {
                  "internalType": "uint256",
                  "name": "ID",
                  "type": "uint256"
                },
                {
                  "internalType": "address",
                  "name": "add",
                  "type": "address"
                },
                {
                  "internalType": "string",
                  "name": "name",
                  "type": "string"
                },
                {
                  "internalType": "uint256",
                  "name": "phno",
                  "type": "uint256"
                },
                {
                  "internalType": "uint256",
                  "name": "price",
                  "type": "uint256"
                },
                {
                  "internalType": "bool",
                  "name": "inicondition",
                  "type": "bool"
                }
              ],
              "internalType": "struct Shipment.Distridetail",
              "name": "distridetails",
              "type": "tuple"
            },
            {
              "components": [
                {
                  "internalType": "uint256",
                  "name": "ID",
                  "type": "uint256"
                },
                {
                  "internalType": "address",
                  "name": "add",
                  "type": "address"
                },
                {
                  "internalType": "string",
                  "name": "name",
                  "type": "string"
                },
                {
                  "internalType": "uint256",
                  "name": "phno",
                  "type": "uint256"
                },
                {
                  "internalType": "uint256",
                  "name": "price",
                  "type": "uint256"
                },
                {
                  "internalType": "bool",
                  "name": "inicondition",
                  "type": "bool"
                }
              ],
              "internalType": "struct Shipment.Retaildetail",
              "name": "retaildetails",
              "type": "tuple"
            }
          ],
          "internalType": "struct Shipment.shipment[]",
          "name": "",
          "type": "tuple[]"
        }
      ],
      "stateMutability": "view",
      "type": "function",
      "constant": true
    },
    {
      "inputs": [
        {
          "internalType": "uint256",
          "name": "_shipmentid",
          "type": "uint256"
        }
      ],
      "name": "showshipment",
      "outputs": [
        {
          "components": [
            {
              "internalType": "uint256",
              "name": "id",
              "type": "uint256"
            },
            {
              "components": [
                {
                  "internalType": "uint256",
                  "name": "ID",
                  "type": "uint256"
                },
                {
                  "internalType": "address",
                  "name": "add",
                  "type": "address"
                },
                {
                  "internalType": "string",
                  "name": "name",
                  "type": "string"
                },
                {
                  "internalType": "uint256",
                  "name": "phno",
                  "type": "uint256"
                },
                {
                  "internalType": "string",
                  "name": "companyname",
                  "type": "string"
                }
              ],
              "internalType": "struct Shipment.Manudetail",
              "name": "manudetails",
              "type": "tuple"
            },
            {
              "components": [
                {
                  "internalType": "uint256",
                  "name": "ID",
                  "type": "uint256"
                },
                {
                  "internalType": "address",
                  "name": "add",
                  "type": "address"
                },
                {
                  "internalType": "string",
                  "name": "name",
                  "type": "string"
                },
                {
                  "internalType": "uint256",
                  "name": "phno",
                  "type": "uint256"
                },
                {
                  "internalType": "uint256",
                  "name": "price",
                  "type": "uint256"
                },
                {
                  "internalType": "bool",
                  "name": "inicondition",
                  "type": "bool"
                }
              ],
              "internalType": "struct Shipment.Distridetail",
              "name": "distridetails",
              "type": "tuple"
            },
            {
              "components": [
                {
                  "internalType": "uint256",
                  "name": "ID",
                  "type": "uint256"
                },
                {
                  "internalType": "address",
                  "name": "add",
                  "type": "address"
                },
                {
                  "internalType": "string",
                  "name": "name",
                  "type": "string"
                },
                {
                  "internalType": "uint256",
                  "name": "phno",
                  "type": "uint256"
                },
                {
                  "internalType": "uint256",
                  "name": "price",
                  "type": "uint256"
                },
                {
                  "internalType": "bool",
                  "name": "inicondition",
                  "type": "bool"
                }
              ],
              "internalType": "struct Shipment.Retaildetail",
              "name": "retaildetails",
              "type": "tuple"
            }
          ],
          "internalType": "struct Shipment.shipment",
          "name": "",
          "type": "tuple"
        }
      ],
      "stateMutability": "view",
      "type": "function",
      "constant": true
    }
  ],
  "bytecode": "0x60806040526001600055600180556001600255600160035534801561002357600080fd5b5061463b806100336000396000f3fe6080604052600436106102045760003560e01c806388bd7d8111610118578063a339e073116100a0578063d091b8081161006f578063d091b80814610783578063d7a5ccdf146107c0578063dcadd46d146107fd578063e3faa8d614610819578063ee3a47f91461085657610204565b8063a339e073146106c7578063a45eb1e1146106f0578063a6b3534a1461071b578063c1e713d01461074657610204565b80639591c1e4116100e75780639591c1e4146105ce5780639aa3744c1461060b5780639af41d42146106345780639b89fa801461065f578063a1101ce11461069c57610204565b806388bd7d81146105215780639362af601461054a578063940c8deb1461058757806394b2cd73146105a357610204565b80634b568c521161019b57806365d992b61161016a57806365d992b614610432578063678712d51461046f5780637cdc733f1461048b5780637d344a44146104a7578063846a6872146104e457610204565b80634b568c52146103855780634d6ec6e8146103b0578063526db24b146103d95780635c827acc146103f557610204565b80631ecf20b8116101d75780631ecf20b8146102c15780632ac08a93146102fe5780632db7df8a1461033e5780632e58aebc1461035a57610204565b80630cade868146102095780631caacd5e146102325780631d0fc9db1461026f5780631e56ed2b14610298575b600080fd5b34801561021557600080fd5b50610230600480360381019061022b9190613347565b610881565b005b34801561023e57600080fd5b50610259600480360381019061025491906133f0565b610a63565b604051610266919061343f565b60405180910390f35b34801561027b57600080fd5b506102966004803603810190610291919061345a565b610a94565b005b3480156102a457600080fd5b506102bf60048036038101906102ba919061345a565b610d09565b005b3480156102cd57600080fd5b506102e860048036038101906102e391906133f0565b610f7f565b6040516102f5919061343f565b60405180910390f35b34801561030a57600080fd5b5061032560048036038101906103209190613501565b610fb0565b6040516103359493929190613769565b60405180910390f35b61035860048036038101906103539190613501565b6113de565b005b34801561036657600080fd5b5061036f611554565b60405161037c919061343f565b60405180910390f35b34801561039157600080fd5b5061039a61155a565b6040516103a7919061343f565b60405180910390f35b3480156103bc57600080fd5b506103d760048036038101906103d2919061345a565b611560565b005b6103f360048036038101906103ee9190613501565b6117d6565b005b34801561040157600080fd5b5061041c600480360381019061041791906137c3565b6118cc565b604051610429919061389f565b60405180910390f35b34801561043e57600080fd5b5061045960048036038101906104549190613501565b611963565b6040516104669190613ac1565b60405180910390f35b61048960048036038101906104849190613501565b611dc1565b005b6104a560048036038101906104a09190613501565b611eb7565b005b3480156104b357600080fd5b506104ce60048036038101906104c991906137c3565b612022565b6040516104db9190613af2565b60405180910390f35b3480156104f057600080fd5b5061050b600480360381019061050691906133f0565b612042565b604051610518919061343f565b60405180910390f35b34801561052d57600080fd5b5061054860048036038101906105439190613501565b612073565b005b34801561055657600080fd5b50610571600480360381019061056c91906137c3565b6120a2565b60405161057e919061343f565b60405180910390f35b6105a1600480360381019061059c9190613501565b6120ba565b005b3480156105af57600080fd5b506105b8612225565b6040516105c5919061343f565b60405180910390f35b3480156105da57600080fd5b506105f560048036038101906105f091906137c3565b61222b565b604051610602919061343f565b60405180910390f35b34801561061757600080fd5b50610632600480360381019061062d9190613501565b612243565b005b34801561064057600080fd5b50610649612272565b6040516106569190613af2565b60405180910390f35b34801561066b57600080fd5b50610686600480360381019061068191906137c3565b6122c6565b604051610693919061389f565b60405180910390f35b3480156106a857600080fd5b506106b161235d565b6040516106be9190613af2565b60405180910390f35b3480156106d357600080fd5b506106ee60048036038101906106e99190613b0d565b6123b1565b005b3480156106fc57600080fd5b506107056128d2565b6040516107129190613af2565b60405180910390f35b34801561072757600080fd5b50610730612926565b60405161073d9190613d4a565b60405180910390f35b34801561075257600080fd5b5061076d600480360381019061076891906137c3565b612d9b565b60405161077a919061343f565b60405180910390f35b34801561078f57600080fd5b506107aa60048036038101906107a591906137c3565b612db3565b6040516107b7919061389f565b60405180910390f35b3480156107cc57600080fd5b506107e760048036038101906107e291906137c3565b612e4a565b6040516107f49190613af2565b60405180910390f35b61081760048036038101906108129190613501565b612e6a565b005b34801561082557600080fd5b50610840600480360381019061083b91906137c3565b612fe0565b60405161084d9190613af2565b60405180910390f35b34801561086257600080fd5b5061086b613000565b604051610878919061343f565b60405180910390f35b60011515600860003373ffffffffffffffffffffffffffffffffffffffff1673ffffffffffffffffffffffffffffffffffffffff16815260200190815260200160002060009054906101000a900460ff16151514610914576040517f08c379a000000000000000000000000000000000000000000000000000000000815260040161090b90613def565b60405180910390fd5b6040518060c00160405280600c60008873ffffffffffffffffffffffffffffffffffffffff1673ffffffffffffffffffffffffffffffffffffffff1681526020019081526020016000205481526020018673ffffffffffffffffffffffffffffffffffffffff168152602001858152602001848152602001838152602001821515815250601087815481106109ac576109ab613e0f565b5b9060005260206000209060120201600c016000820151816000015560208201518160010160006101000a81548173ffffffffffffffffffffffffffffffffffffffff021916908373ffffffffffffffffffffffffffffffffffffffff1602179055506040820151816002019081610a23919061404a565b50606082015181600301556080820151816004015560a08201518160050160006101000a81548160ff021916908315150217905550905050505050505050565b600e6020528160005260406000208181548110610a7f57600080fd5b90600052602060002001600091509150505481565b60001515600560003373ffffffffffffffffffffffffffffffffffffffff1673ffffffffffffffffffffffffffffffffffffffff16815260200190815260200160002060009054906101000a900460ff16151514610b27576040517f08c379a0000000000000000000000000000000000000000000000000000000008152600401610b1e9061418e565b60405180910390fd5b60046040518060c0016040528060005481526020018581526020013373ffffffffffffffffffffffffffffffffffffffff168152602001848152602001838152602001600115158152509080600181540180825580915050600190039060005260206000209060060201600090919091909150600082015181600001556020820151816001019081610bb9919061404a565b5060408201518160020160006101000a81548173ffffffffffffffffffffffffffffffffffffffff021916908373ffffffffffffffffffffffffffffffffffffffff1602179055506060820151816003019081610c16919061404a565b506080820151816004019081610c2c919061404a565b5060a08201518160050160006101000a81548160ff02191690831515021790555050506001600560003373ffffffffffffffffffffffffffffffffffffffff1673ffffffffffffffffffffffffffffffffffffffff16815260200190815260200160002060006101000a81548160ff021916908315150217905550600054600660003373ffffffffffffffffffffffffffffffffffffffff1673ffffffffffffffffffffffffffffffffffffffff16815260200190815260200160002081905550600080815480929190610cff906141dd565b9190505550505050565b60001515600860003373ffffffffffffffffffffffffffffffffffffffff1673ffffffffffffffffffffffffffffffffffffffff16815260200190815260200160002060009054906101000a900460ff16151514610d9c576040517f08c379a0000000000000000000000000000000000000000000000000000000008152600401610d9390614271565b60405180910390fd5b60076040518060c0016040528060015481526020018581526020013373ffffffffffffffffffffffffffffffffffffffff168152602001838152602001848152602001600115158152509080600181540180825580915050600190039060005260206000209060060201600090919091909150600082015181600001556020820151816001019081610e2e919061404a565b5060408201518160020160006101000a81548173ffffffffffffffffffffffffffffffffffffffff021916908373ffffffffffffffffffffffffffffffffffffffff1602179055506060820151816003019081610e8b919061404a565b506080820151816004019081610ea1919061404a565b5060a08201518160050160006101000a81548160ff02191690831515021790555050506001600860003373ffffffffffffffffffffffffffffffffffffffff1673ffffffffffffffffffffffffffffffffffffffff16815260200190815260200160002060006101000a81548160ff021916908315150217905550600154600960003373ffffffffffffffffffffffffffffffffffffffff1673ffffffffffffffffffffffffffffffffffffffff1681526020019081526020016000208190555060016000815480929190610f75906141dd565b9190505550505050565b600f6020528160005260406000208181548110610f9b57600080fd5b90600052602060002001600091509150505481565b60108181548110610fc057600080fd5b9060005260206000209060120201600091509050806000015490806001016040518060a0016040529081600082015481526020016001820160009054906101000a900473ffffffffffffffffffffffffffffffffffffffff1673ffffffffffffffffffffffffffffffffffffffff1673ffffffffffffffffffffffffffffffffffffffff16815260200160028201805461105990613e6d565b80601f016020809104026020016040519081016040528092919081815260200182805461108590613e6d565b80156110d25780601f106110a7576101008083540402835291602001916110d2565b820191906000526020600020905b8154815290600101906020018083116110b557829003601f168201915b50505050508152602001600382015481526020016004820180546110f590613e6d565b80601f016020809104026020016040519081016040528092919081815260200182805461112190613e6d565b801561116e5780601f106111435761010080835404028352916020019161116e565b820191906000526020600020905b81548152906001019060200180831161115157829003601f168201915b50505050508152505090806006016040518060c0016040529081600082015481526020016001820160009054906101000a900473ffffffffffffffffffffffffffffffffffffffff1673ffffffffffffffffffffffffffffffffffffffff1673ffffffffffffffffffffffffffffffffffffffff1681526020016002820180546111f790613e6d565b80601f016020809104026020016040519081016040528092919081815260200182805461122390613e6d565b80156112705780601f1061124557610100808354040283529160200191611270565b820191906000526020600020905b81548152906001019060200180831161125357829003601f168201915b5050505050815260200160038201548152602001600482015481526020016005820160009054906101000a900460ff1615151515815250509080600c016040518060c0016040529081600082015481526020016001820160009054906101000a900473ffffffffffffffffffffffffffffffffffffffff1673ffffffffffffffffffffffffffffffffffffffff1673ffffffffffffffffffffffffffffffffffffffff16815260200160028201805461132890613e6d565b80601f016020809104026020016040519081016040528092919081815260200182805461135490613e6d565b80156113a15780601f10611376576101008083540402835291602001916113a1565b820191906000526020600020905b81548152906001019060200180831161138457829003601f168201915b5050505050815260200160038201548152602001600482015481526020016005820160009054906101000a900460ff161515151581525050905084565b60011515600860003373ffffffffffffffffffffffffffffffffffffffff1673ffffffffffffffffffffffffffffffffffffffff16815260200190815260200160002060009054906101000a900460ff16151514611471576040517f08c379a0000000000000000000000000000000000000000000000000000000008152600401611468906142dd565b60405180910390fd5b6010818154811061148557611484613e0f565b5b9060005260206000209060120201600601600401543410156114dc576040517f08c379a00000000000000000000000000000000000000000000000000000000081526004016114d390614349565b60405180910390fd5b6000601082815481106114f2576114f1613e0f565b5b90600052602060002090601202016006016004015490503073ffffffffffffffffffffffffffffffffffffffff166108fc829081150290604051600060405180830381858888f1935050505015801561154f573d6000803e3d6000fd5b505050565b60035481565b60025481565b60001515600b60003373ffffffffffffffffffffffffffffffffffffffff1673ffffffffffffffffffffffffffffffffffffffff16815260200190815260200160002060009054906101000a900460ff161515146115f3576040517f08c379a00000000000000000000000000000000000000000000000000000000081526004016115ea906143db565b60405180910390fd5b600a6040518060c0016040528060025481526020018581526020013373ffffffffffffffffffffffffffffffffffffffff168152602001838152602001848152602001600115158152509080600181540180825580915050600190039060005260206000209060060201600090919091909150600082015181600001556020820151816001019081611685919061404a565b5060408201518160020160006101000a81548173ffffffffffffffffffffffffffffffffffffffff021916908373ffffffffffffffffffffffffffffffffffffffff16021790555060608201518160030190816116e2919061404a565b5060808201518160040190816116f8919061404a565b5060a08201518160050160006101000a81548160ff02191690831515021790555050506001600b60003373ffffffffffffffffffffffffffffffffffffffff1673ffffffffffffffffffffffffffffffffffffffff16815260200190815260200160002060006101000a81548160ff021916908315150217905550600254600c60003373ffffffffffffffffffffffffffffffffffffffff1673ffffffffffffffffffffffffffffffffffffffff16815260200190815260200160002081905550600260008154809291906117cc906141dd565b9190505550505050565b60011515600b60003373ffffffffffffffffffffffffffffffffffffffff1673ffffffffffffffffffffffffffffffffffffffff16815260200190815260200160002060009054906101000a900460ff16151514611869576040517f08c379a000000000000000000000000000000000000000000000000000000000815260040161186090614447565b60405180910390fd5b6012600082815260200190815260200160002060009054906101000a900460ff166118c9576040517f08c379a00000000000000000000000000000000000000000000000000000000081526004016118c0906144b3565b60405180910390fd5b50565b6060600e60008373ffffffffffffffffffffffffffffffffffffffff1673ffffffffffffffffffffffffffffffffffffffff16815260200190815260200160002080548060200260200160405190810160405280929190818152602001828054801561195757602002820191906000526020600020905b815481526020019060010190808311611943575b50505050509050919050565b61196b613006565b601060018361197a91906144d3565b8154811061198b5761198a613e0f565b5b906000526020600020906012020160405180608001604052908160008201548152602001600182016040518060a0016040529081600082015481526020016001820160009054906101000a900473ffffffffffffffffffffffffffffffffffffffff1673ffffffffffffffffffffffffffffffffffffffff1673ffffffffffffffffffffffffffffffffffffffff168152602001600282018054611a2e90613e6d565b80601f0160208091040260200160405190810160405280929190818152602001828054611a5a90613e6d565b8015611aa75780601f10611a7c57610100808354040283529160200191611aa7565b820191906000526020600020905b815481529060010190602001808311611a8a57829003601f168201915b5050505050815260200160038201548152602001600482018054611aca90613e6d565b80601f0160208091040260200160405190810160405280929190818152602001828054611af690613e6d565b8015611b435780601f10611b1857610100808354040283529160200191611b43565b820191906000526020600020905b815481529060010190602001808311611b2657829003601f168201915b5050505050815250508152602001600682016040518060c0016040529081600082015481526020016001820160009054906101000a900473ffffffffffffffffffffffffffffffffffffffff1673ffffffffffffffffffffffffffffffffffffffff1673ffffffffffffffffffffffffffffffffffffffff168152602001600282018054611bd090613e6d565b80601f0160208091040260200160405190810160405280929190818152602001828054611bfc90613e6d565b8015611c495780601f10611c1e57610100808354040283529160200191611c49565b820191906000526020600020905b815481529060010190602001808311611c2c57829003601f168201915b5050505050815260200160038201548152602001600482015481526020016005820160009054906101000a900460ff1615151515815250508152602001600c82016040518060c0016040529081600082015481526020016001820160009054906101000a900473ffffffffffffffffffffffffffffffffffffffff1673ffffffffffffffffffffffffffffffffffffffff1673ffffffffffffffffffffffffffffffffffffffff168152602001600282018054611d0590613e6d565b80601f0160208091040260200160405190810160405280929190818152602001828054611d3190613e6d565b8015611d7e5780601f10611d5357610100808354040283529160200191611d7e565b820191906000526020600020905b815481529060010190602001808311611d6157829003601f168201915b5050505050815260200160038201548152602001600482015481526020016005820160009054906101000a900460ff161515151581525050815250509050919050565b60011515600860003373ffffffffffffffffffffffffffffffffffffffff1673ffffffffffffffffffffffffffffffffffffffff16815260200190815260200160002060009054906101000a900460ff16151514611e54576040517f08c379a0000000000000000000000000000000000000000000000000000000008152600401611e4b90613def565b60405180910390fd5b6011600082815260200190815260200160002060009054906101000a900460ff16611eb4576040517f08c379a0000000000000000000000000000000000000000000000000000000008152600401611eab906144b3565b60405180910390fd5b50565b60011515600b60003373ffffffffffffffffffffffffffffffffffffffff1673ffffffffffffffffffffffffffffffffffffffff16815260200190815260200160002060009054906101000a900460ff16151514611f4a576040517f08c379a0000000000000000000000000000000000000000000000000000000008152600401611f4190614447565b60405180910390fd5b6012600082815260200190815260200160002060009054906101000a900460ff16611faa576040517f08c379a0000000000000000000000000000000000000000000000000000000008152600401611fa1906144b3565b60405180910390fd5b600060108281548110611fc057611fbf613e0f565b5b9060005260206000209060120201600c016004015490503373ffffffffffffffffffffffffffffffffffffffff166108fc829081150290604051600060405180830381858888f1935050505015801561201d573d6000803e3d6000fd5b505050565b60086020528060005260406000206000915054906101000a900460ff1681565b600d602052816000526040600020818154811061205e57600080fd5b90600052602060002001600091509150505481565b60016012600083815260200190815260200160002060006101000a81548160ff02191690831515021790555050565b60096020528060005260406000206000915090505481565b60011515600560003373ffffffffffffffffffffffffffffffffffffffff1673ffffffffffffffffffffffffffffffffffffffff16815260200190815260200160002060009054906101000a900460ff1615151461214d576040517f08c379a000000000000000000000000000000000000000000000000000000000815260040161214490614553565b60405180910390fd5b6011600082815260200190815260200160002060009054906101000a900460ff166121ad576040517f08c379a00000000000000000000000000000000000000000000000000000000081526004016121a4906144b3565b60405180910390fd5b6000601082815481106121c3576121c2613e0f565b5b90600052602060002090601202016006016004015490503373ffffffffffffffffffffffffffffffffffffffff166108fc829081150290604051600060405180830381858888f19350505050158015612220573d6000803e3d6000fd5b505050565b60015481565b60066020528060005260406000206000915090505481565b60016011600083815260200190815260200160002060006101000a81548160ff02191690831515021790555050565b6000600860003373ffffffffffffffffffffffffffffffffffffffff1673ffffffffffffffffffffffffffffffffffffffff16815260200190815260200160002060009054906101000a900460ff16905090565b6060600f60008373ffffffffffffffffffffffffffffffffffffffff1673ffffffffffffffffffffffffffffffffffffffff16815260200190815260200160002080548060200260200160405190810160405280929190818152602001828054801561235157602002820191906000526020600020905b81548152602001906001019080831161233d575b50505050509050919050565b6000600b60003373ffffffffffffffffffffffffffffffffffffffff1673ffffffffffffffffffffffffffffffffffffffff16815260200190815260200160002060009054906101000a900460ff16905090565b60011515600560003373ffffffffffffffffffffffffffffffffffffffff1673ffffffffffffffffffffffffffffffffffffffff16815260200190815260200160002060009054906101000a900460ff16151514612444576040517f08c379a000000000000000000000000000000000000000000000000000000000815260040161243b906145e5565b60405180910390fd5b61244c613006565b6003548160000181815250506040518060a00160405280600660003373ffffffffffffffffffffffffffffffffffffffff1673ffffffffffffffffffffffffffffffffffffffff1681526020019081526020016000205481526020013373ffffffffffffffffffffffffffffffffffffffff1681526020018a81526020018981526020018881525081602001819052506040518060c00160405280600960008973ffffffffffffffffffffffffffffffffffffffff1673ffffffffffffffffffffffffffffffffffffffff1681526020019081526020016000205481526020018773ffffffffffffffffffffffffffffffffffffffff16815260200186815260200185815260200184815260200183151581525081604001819052506040518060c0016040528060008152602001600073ffffffffffffffffffffffffffffffffffffffff16815260200160405180602001604052806000815250815260200160008152602001600081526020016000151581525081606001819052506010819080600181540180825580915050600190039060005260206000209060120201600090919091909150600082015181600001556020820151816001016000820151816000015560208201518160010160006101000a81548173ffffffffffffffffffffffffffffffffffffffff021916908373ffffffffffffffffffffffffffffffffffffffff160217905550604082015181600201908161266e919061404a565b5060608201518160030155608082015181600401908161268e919061404a565b5050506040820151816006016000820151816000015560208201518160010160006101000a81548173ffffffffffffffffffffffffffffffffffffffff021916908373ffffffffffffffffffffffffffffffffffffffff1602179055506040820151816002019081612700919061404a565b50606082015181600301556080820151816004015560a08201518160050160006101000a81548160ff0219169083151502179055505050606082015181600c016000820151816000015560208201518160010160006101000a81548173ffffffffffffffffffffffffffffffffffffffff021916908373ffffffffffffffffffffffffffffffffffffffff16021790555060408201518160020190816127a6919061404a565b50606082015181600301556080820151816004015560a08201518160050160006101000a81548160ff02191690831515021790555050505050600d60003373ffffffffffffffffffffffffffffffffffffffff1673ffffffffffffffffffffffffffffffffffffffff1681526020019081526020016000206003549080600181540180825580915050600190039060005260206000200160009091909190915055600e60008773ffffffffffffffffffffffffffffffffffffffff1673ffffffffffffffffffffffffffffffffffffffff1681526020019081526020016000206003549080600181540180825580915050600190039060005260206000200160009091909190915055600360008154809291906128c2906141dd565b9190505550505050505050505050565b6000600560003373ffffffffffffffffffffffffffffffffffffffff1673ffffffffffffffffffffffffffffffffffffffff16815260200190815260200160002060009054906101000a900460ff16905090565b60606010805480602002602001604051908101604052809291908181526020016000905b82821015612d92578382906000526020600020906012020160405180608001604052908160008201548152602001600182016040518060a0016040529081600082015481526020016001820160009054906101000a900473ffffffffffffffffffffffffffffffffffffffff1673ffffffffffffffffffffffffffffffffffffffff1673ffffffffffffffffffffffffffffffffffffffff1681526020016002820180546129f790613e6d565b80601f0160208091040260200160405190810160405280929190818152602001828054612a2390613e6d565b8015612a705780601f10612a4557610100808354040283529160200191612a70565b820191906000526020600020905b815481529060010190602001808311612a5357829003601f168201915b5050505050815260200160038201548152602001600482018054612a9390613e6d565b80601f0160208091040260200160405190810160405280929190818152602001828054612abf90613e6d565b8015612b0c5780601f10612ae157610100808354040283529160200191612b0c565b820191906000526020600020905b815481529060010190602001808311612aef57829003601f168201915b5050505050815250508152602001600682016040518060c0016040529081600082015481526020016001820160009054906101000a900473ffffffffffffffffffffffffffffffffffffffff1673ffffffffffffffffffffffffffffffffffffffff1673ffffffffffffffffffffffffffffffffffffffff168152602001600282018054612b9990613e6d565b80601f0160208091040260200160405190810160405280929190818152602001828054612bc590613e6d565b8015612c125780601f10612be757610100808354040283529160200191612c12565b820191906000526020600020905b815481529060010190602001808311612bf557829003601f168201915b5050505050815260200160038201548152602001600482015481526020016005820160009054906101000a900460ff1615151515815250508152602001600c82016040518060c0016040529081600082015481526020016001820160009054906101000a900473ffffffffffffffffffffffffffffffffffffffff1673ffffffffffffffffffffffffffffffffffffffff1673ffffffffffffffffffffffffffffffffffffffff168152602001600282018054612cce90613e6d565b80601f0160208091040260200160405190810160405280929190818152602001828054612cfa90613e6d565b8015612d475780601f10612d1c57610100808354040283529160200191612d47565b820191906000526020600020905b815481529060010190602001808311612d2a57829003601f168201915b5050505050815260200160038201548152602001600482015481526020016005820160009054906101000a900460ff161515151581525050815250508152602001906001019061294a565b50505050905090565b600c6020528060005260406000206000915090505481565b6060600d60008373ffffffffffffffffffffffffffffffffffffffff1673ffffffffffffffffffffffffffffffffffffffff168152602001908152602001600020805480602002602001604051908101604052809291908181526020018280548015612e3e57602002820191906000526020600020905b815481526020019060010190808311612e2a575b50505050509050919050565b60056020528060005260406000206000915054906101000a900460ff1681565b60011515600860003373ffffffffffffffffffffffffffffffffffffffff1673ffffffffffffffffffffffffffffffffffffffff16815260200190815260200160002060009054906101000a900460ff16151514612efd576040517f08c379a0000000000000000000000000000000000000000000000000000000008152600401612ef4906142dd565b60405180910390fd5b60108181548110612f1157612f10613e0f565b5b9060005260206000209060120201600c0160040154341015612f68576040517f08c379a0000000000000000000000000000000000000000000000000000000008152600401612f5f90614349565b60405180910390fd5b600060108281548110612f7e57612f7d613e0f565b5b9060005260206000209060120201600c016004015490503073ffffffffffffffffffffffffffffffffffffffff166108fc829081150290604051600060405180830381858888f19350505050158015612fdb573d6000803e3d6000fd5b505050565b600b6020528060005260406000206000915054906101000a900460ff1681565b60005481565b604051806080016040528060008152602001613020613040565b815260200161302d613085565b815260200161303a6130d3565b81525090565b6040518060a0016040528060008152602001600073ffffffffffffffffffffffffffffffffffffffff1681526020016060815260200160008152602001606081525090565b6040518060c0016040528060008152602001600073ffffffffffffffffffffffffffffffffffffffff1681526020016060815260200160008152602001600081526020016000151581525090565b6040518060c0016040528060008152602001600073ffffffffffffffffffffffffffffffffffffffff1681526020016060815260200160008152602001600081526020016000151581525090565b6000604051905090565b600080fd5b600080fd5b6000819050919050565b61314881613135565b811461315357600080fd5b50565b6000813590506131658161313f565b92915050565b600073ffffffffffffffffffffffffffffffffffffffff82169050919050565b60006131968261316b565b9050919050565b6131a68161318b565b81146131b157600080fd5b50565b6000813590506131c38161319d565b92915050565b600080fd5b600080fd5b6000601f19601f8301169050919050565b7f4e487b7100000000000000000000000000000000000000000000000000000000600052604160045260246000fd5b61321c826131d3565b810181811067ffffffffffffffff8211171561323b5761323a6131e4565b5b80604052505050565b600061324e613121565b905061325a8282613213565b919050565b600067ffffffffffffffff82111561327a576132796131e4565b5b613283826131d3565b9050602081019050919050565b82818337600083830152505050565b60006132b26132ad8461325f565b613244565b9050828152602081018484840111156132ce576132cd6131ce565b5b6132d9848285613290565b509392505050565b600082601f8301126132f6576132f56131c9565b5b813561330684826020860161329f565b91505092915050565b60008115159050919050565b6133248161330f565b811461332f57600080fd5b50565b6000813590506133418161331b565b92915050565b60008060008060008060c087890312156133645761336361312b565b5b600061337289828a01613156565b965050602061338389828a016131b4565b955050604087013567ffffffffffffffff8111156133a4576133a3613130565b5b6133b089828a016132e1565b94505060606133c189828a01613156565b93505060806133d289828a01613156565b92505060a06133e389828a01613332565b9150509295509295509295565b600080604083850312156134075761340661312b565b5b6000613415858286016131b4565b925050602061342685828601613156565b9150509250929050565b61343981613135565b82525050565b60006020820190506134546000830184613430565b92915050565b6000806000606084860312156134735761347261312b565b5b600084013567ffffffffffffffff81111561349157613490613130565b5b61349d868287016132e1565b935050602084013567ffffffffffffffff8111156134be576134bd613130565b5b6134ca868287016132e1565b925050604084013567ffffffffffffffff8111156134eb576134ea613130565b5b6134f7868287016132e1565b9150509250925092565b6000602082840312156135175761351661312b565b5b600061352584828501613156565b91505092915050565b61353781613135565b82525050565b6135468161318b565b82525050565b600081519050919050565b600082825260208201905092915050565b60005b8381101561358657808201518184015260208101905061356b565b60008484015250505050565b600061359d8261354c565b6135a78185613557565b93506135b7818560208601613568565b6135c0816131d3565b840191505092915050565b600060a0830160008301516135e3600086018261352e565b5060208301516135f6602086018261353d565b506040830151848203604086015261360e8282613592565b9150506060830151613623606086018261352e565b506080830151848203608086015261363b8282613592565b9150508091505092915050565b6136518161330f565b82525050565b600060c08301600083015161366f600086018261352e565b506020830151613682602086018261353d565b506040830151848203604086015261369a8282613592565b91505060608301516136af606086018261352e565b5060808301516136c2608086018261352e565b5060a08301516136d560a0860182613648565b508091505092915050565b600060c0830160008301516136f8600086018261352e565b50602083015161370b602086018261353d565b50604083015184820360408601526137238282613592565b9150506060830151613738606086018261352e565b50608083015161374b608086018261352e565b5060a083015161375e60a0860182613648565b508091505092915050565b600060808201905061377e6000830187613430565b818103602083015261379081866135cb565b905081810360408301526137a48185613657565b905081810360608301526137b881846136e0565b905095945050505050565b6000602082840312156137d9576137d861312b565b5b60006137e7848285016131b4565b91505092915050565b600081519050919050565b600082825260208201905092915050565b6000819050602082019050919050565b6000613828838361352e565b60208301905092915050565b6000602082019050919050565b600061384c826137f0565b61385681856137fb565b93506138618361380c565b8060005b83811015613892578151613879888261381c565b975061388483613834565b925050600181019050613865565b5085935050505092915050565b600060208201905081810360008301526138b98184613841565b905092915050565b600060a0830160008301516138d9600086018261352e565b5060208301516138ec602086018261353d565b50604083015184820360408601526139048282613592565b9150506060830151613919606086018261352e565b50608083015184820360808601526139318282613592565b9150508091505092915050565b600060c083016000830151613956600086018261352e565b506020830151613969602086018261353d565b50604083015184820360408601526139818282613592565b9150506060830151613996606086018261352e565b5060808301516139a9608086018261352e565b5060a08301516139bc60a0860182613648565b508091505092915050565b600060c0830160008301516139df600086018261352e565b5060208301516139f2602086018261353d565b5060408301518482036040860152613a0a8282613592565b9150506060830151613a1f606086018261352e565b506080830151613a32608086018261352e565b5060a0830151613a4560a0860182613648565b508091505092915050565b6000608083016000830151613a68600086018261352e565b5060208301518482036020860152613a8082826138c1565b91505060408301518482036040860152613a9a828261393e565b91505060608301518482036060860152613ab482826139c7565b9150508091505092915050565b60006020820190508181036000830152613adb8184613a50565b905092915050565b613aec8161330f565b82525050565b6000602082019050613b076000830184613ae3565b92915050565b600080600080600080600080610100898b031215613b2e57613b2d61312b565b5b600089013567ffffffffffffffff811115613b4c57613b4b613130565b5b613b588b828c016132e1565b9850506020613b698b828c01613156565b975050604089013567ffffffffffffffff811115613b8a57613b89613130565b5b613b968b828c016132e1565b9650506060613ba78b828c016131b4565b955050608089013567ffffffffffffffff811115613bc857613bc7613130565b5b613bd48b828c016132e1565b94505060a0613be58b828c01613156565b93505060c0613bf68b828c01613156565b92505060e0613c078b828c01613332565b9150509295985092959890939650565b600081519050919050565b600082825260208201905092915050565b6000819050602082019050919050565b6000608083016000830151613c5b600086018261352e565b5060208301518482036020860152613c7382826138c1565b91505060408301518482036040860152613c8d828261393e565b91505060608301518482036060860152613ca782826139c7565b9150508091505092915050565b6000613cc08383613c43565b905092915050565b6000602082019050919050565b6000613ce082613c17565b613cea8185613c22565b935083602082028501613cfc85613c33565b8060005b85811015613d385784840389528151613d198582613cb4565b9450613d2483613cc8565b925060208a01995050600181019050613d00565b50829750879550505050505092915050565b60006020820190508181036000830152613d648184613cd5565b905092915050565b600082825260208201905092915050565b7f796f75206d757374206265206120646973747269627574657220746f20636f6e60008201527f74696e7565206675727468757200000000000000000000000000000000000000602082015250565b6000613dd9602d83613d6c565b9150613de482613d7d565b604082019050919050565b60006020820190508181036000830152613e0881613dcc565b9050919050565b7f4e487b7100000000000000000000000000000000000000000000000000000000600052603260045260246000fd5b7f4e487b7100000000000000000000000000000000000000000000000000000000600052602260045260246000fd5b60006002820490506001821680613e8557607f821691505b602082108103613e9857613e97613e3e565b5b50919050565b60008190508160005260206000209050919050565b60006020601f8301049050919050565b600082821b905092915050565b600060088302613f007fffffffffffffffffffffffffffffffffffffffffffffffffffffffffffffffff82613ec3565b613f0a8683613ec3565b95508019841693508086168417925050509392505050565b6000819050919050565b6000613f47613f42613f3d84613135565b613f22565b613135565b9050919050565b6000819050919050565b613f6183613f2c565b613f75613f6d82613f4e565b848454613ed0565b825550505050565b600090565b613f8a613f7d565b613f95818484613f58565b505050565b5b81811015613fb957613fae600082613f82565b600181019050613f9b565b5050565b601f821115613ffe57613fcf81613e9e565b613fd884613eb3565b81016020851015613fe7578190505b613ffb613ff385613eb3565b830182613f9a565b50505b505050565b600082821c905092915050565b600061402160001984600802614003565b1980831691505092915050565b600061403a8383614010565b9150826002028217905092915050565b6140538261354c565b67ffffffffffffffff81111561406c5761406b6131e4565b5b6140768254613e6d565b614081828285613fbd565b600060209050601f8311600181146140b457600084156140a2578287015190505b6140ac858261402e565b865550614114565b601f1984166140c286613e9e565b60005b828110156140ea578489015182556001820191506020850194506020810190506140c5565b868310156141075784890151614103601f891682614010565b8355505b6001600288020188555050505b505050505050565b7f616c72656164792072656769737465726564206173206d616e7566616374757260008201527f6572000000000000000000000000000000000000000000000000000000000000602082015250565b6000614178602283613d6c565b91506141838261411c565b604082019050919050565b600060208201905081810360008301526141a78161416b565b9050919050565b7f4e487b7100000000000000000000000000000000000000000000000000000000600052601160045260246000fd5b60006141e882613135565b91507fffffffffffffffffffffffffffffffffffffffffffffffffffffffffffffffff820361421a576142196141ae565b5b600182019050919050565b7f616c726561647920726567697374657265642061732072657461696c65720000600082015250565b600061425b601e83613d6c565b915061426682614225565b602082019050919050565b6000602082019050818103600083015261428a8161424e565b9050919050565b7f796f75206d757374206265206120646973747269627574657200000000000000600082015250565b60006142c7601983613d6c565b91506142d282614291565b602082019050919050565b600060208201905081810360008301526142f6816142ba565b9050919050565b7f706c6561736520706179207468652073756666696369656e7420616d6f756e74600082015250565b6000614333602083613d6c565b915061433e826142fd565b602082019050919050565b6000602082019050818103600083015261436281614326565b9050919050565b7f616c72656164792072656769737465726564206173206469737472696275746560008201527f7200000000000000000000000000000000000000000000000000000000000000602082015250565b60006143c5602183613d6c565b91506143d082614369565b604082019050919050565b600060208201905081810360008301526143f4816143b8565b9050919050565b7f796f75206d75737420626520612072657461696c657200000000000000000000600082015250565b6000614431601683613d6c565b915061443c826143fb565b602082019050919050565b6000602082019050818103600083015261446081614424565b9050919050565b7f736869706d656e74206e6f742072656369657665642079657400000000000000600082015250565b600061449d601983613d6c565b91506144a882614467565b602082019050919050565b600060208201905081810360008301526144cc81614490565b9050919050565b60006144de82613135565b91506144e983613135565b9250828203905081811115614501576145006141ae565b5b92915050565b7f796f75206d7573742062652061206d616e756661637475726572000000000000600082015250565b600061453d601a83613d6c565b915061454882614507565b602082019050919050565b6000602082019050818103600083015261456c81614530565b9050919050565b7f796f75206d7573742062652061206d616e75666163747572657220746f20737460008201527f61727420736869706d656e740000000000000000000000000000000000000000602082015250565b60006145cf602c83613d6c565b91506145da82614573565b604082019050919050565b600060208201905081810360008301526145fe816145c2565b905091905056fea264697066735822122082ec9c121266a1e22a121fa3833523797c6b64613609a1b3697724330b3a00df64736f6c63430008130033",
  "immutableReferences": {},
  "source": "//SPDX-License-Identifier: UNLICENSED\r\npragma solidity >=0.8.0;\r\n\r\ncontract Shipment {\r\n    // ----------> LOGIN SIGNUP PART\r\n    uint256 public IDm=1;\r\n    uint256 public IDd=1;\r\n    uint256 public IDr=1;\r\n    uint256 public shipmentid = 1;\r\n    struct Manufacturer {\r\n        uint256 IDmanu;\r\n        string name;\r\n        address add;\r\n        string phoneNumber;\r\n        string companyname;\r\n        bool registered;\r\n    }\r\n\r\n    struct Distributer {\r\n        uint256 IDdis;\r\n        string name;\r\n        address add;\r\n        string phoneNumber;\r\n        string verificationLink;\r\n        bool registered;\r\n    }\r\n\r\n    struct Retailer {\r\n        uint256 IDmanu;\r\n        string name;\r\n        address add;\r\n        string phoneNumber;\r\n        string verificationLink;\r\n        bool registered;\r\n    }\r\n    Manufacturer[] private manufacturers;\r\n    mapping(address => bool) public manufacRegis;\r\n    mapping(address => uint) public manufacRegisid;\r\n\r\n    Distributer[] private distributers;\r\n    mapping(address => bool) public distriRegis;\r\n    mapping(address => uint) public distriRegisid;\r\n\r\n    Retailer[] private retailers;\r\n    mapping(address => bool) public retailRegis;\r\n    mapping(address => uint) public retailRegisid;\r\n\r\n    function registerManufacturer(\r\n        string memory _name,\r\n        string memory _phno,\r\n        string memory _companyname\r\n    ) public {\r\n        require(\r\n            manufacRegis[msg.sender] == false,\r\n            \"already registered as manufacturer\"\r\n        );\r\n        manufacturers.push(\r\n            Manufacturer(IDm, _name, msg.sender, _phno, _companyname, true)\r\n        );\r\n        manufacRegis[msg.sender] = true;\r\n        manufacRegisid[msg.sender] = IDm;\r\n        IDm++;\r\n    }\r\n\r\n    function registerDistributer(\r\n        string memory _name,\r\n        string memory _verification,\r\n        string memory _phno\r\n    ) public {\r\n        require(\r\n            distriRegis[msg.sender] == false,\r\n            \"already registered as retailer\"\r\n        );\r\n        distributers.push(\r\n            Distributer(IDd, _name, msg.sender, _phno, _verification, true)\r\n        );\r\n        distriRegis[msg.sender] = true;\r\n        distriRegisid[msg.sender] = IDd;\r\n        IDd++;\r\n    }\r\n\r\n    function registerRetailer(\r\n        string memory _name,\r\n        string memory _verification,\r\n        string memory _phno\r\n    ) public {\r\n        require(\r\n            retailRegis[msg.sender] == false,\r\n            \"already registered as distributer\"\r\n        );\r\n        retailers.push(\r\n            Retailer(IDr, _name, msg.sender, _phno, _verification, true)\r\n        );\r\n        retailRegis[msg.sender] = true;\r\n        retailRegisid[msg.sender] = IDr;\r\n        IDr++;\r\n    }\r\n\r\n    function existmanu() view public returns(bool){\r\n        return manufacRegis[msg.sender];\r\n    }\r\n\r\n    function exisdistri() view public returns(bool){\r\n        return distriRegis[msg.sender];\r\n    }\r\n\r\n    function existretail() view public returns(bool){\r\n        return retailRegis[msg.sender];\r\n    }\r\n\r\n    // ----------->shipment relation\r\n    mapping(address => uint256[]) public manushipment;\r\n    mapping(address => uint256[]) public distrishipment;\r\n    mapping(address => uint256[]) public retailshipment;\r\n\r\n    //----------------------------------------------------------\r\n    //----------------------------------------------------------\r\n\r\n    function showdistributershipment(address _address) public view returns(uint[] memory){\r\n        return distrishipment[_address];\r\n    }\r\n\r\n    function showmanufactshipment(address _address) public view returns(uint[] memory){\r\n        return manushipment[_address];\r\n    }\r\n\r\n    function showretailershipment(address _address) public view returns(uint[] memory){\r\n        return retailshipment[_address];\r\n    }\r\n\r\n\r\n    //----------------------------------------------------------\r\n    struct shipment {\r\n        uint256 id;\r\n        Manudetail manudetails;\r\n        Distridetail distridetails;\r\n        Retaildetail retaildetails;\r\n    }\r\n    shipment[] public shipments;\r\n\r\n    struct Manudetail {\r\n        uint256 ID;\r\n        address add;\r\n        string name;\r\n        uint256 phno;\r\n        string companyname;\r\n    }\r\n\r\n    struct Distridetail {\r\n        uint256 ID;\r\n        address add;\r\n        string name;\r\n        uint256 phno;\r\n        uint256 price;\r\n        bool inicondition;\r\n    }\r\n\r\n    struct Retaildetail {\r\n        uint256 ID;\r\n        address add;\r\n        string name;\r\n        uint256 phno;\r\n        uint256 price;\r\n        bool inicondition;\r\n    }\r\n\r\n    function payToManufacturer(uint _shipmentid) public payable {\r\n        require(distriRegis[msg.sender] == true, \"you must be a distributer\");\r\n        require(\r\n            msg.value >= shipments[_shipmentid].distridetails.price,\r\n            \"please pay the sufficient amount\"\r\n        );\r\n        uint amount = shipments[_shipmentid].distridetails.price;\r\n        payable(address(this)).transfer(amount);\r\n    }\r\n\r\n    function createShipment(\r\n        string memory _manuName,\r\n        uint256 _manuPhNo,\r\n        string memory _manuCompanyName,\r\n        address _distriAddress,\r\n        string memory _distriName,\r\n        uint256 _distriPhNo,\r\n        uint256 _distriPrice,\r\n        bool _distriInCondition\r\n    ) public {\r\n        require(\r\n            manufacRegis[msg.sender] == true,\r\n            \"you must be a manufacturer to start shipment\"\r\n        );\r\n        shipment memory newShipment;\r\n        newShipment.id = shipmentid;\r\n        newShipment.manudetails = Manudetail(\r\n            manufacRegisid[msg.sender],\r\n            msg.sender,\r\n            _manuName,\r\n            _manuPhNo,\r\n            _manuCompanyName\r\n        );\r\n        newShipment.distridetails = Distridetail(\r\n            distriRegisid[_distriAddress],\r\n            _distriAddress,\r\n            _distriName,\r\n            _distriPhNo,\r\n            _distriPrice,\r\n            _distriInCondition\r\n        ); \r\n        newShipment.retaildetails = Retaildetail(\r\n            0,\r\n            address(0),\r\n            \"\",\r\n            0,\r\n            0,\r\n            false\r\n        );\r\n        shipments.push(newShipment);\r\n        manushipment[msg.sender].push(shipmentid);\r\n        distrishipment[_distriAddress].push(shipmentid);\r\n        shipmentid++;\r\n    }\r\n\r\n    mapping (uint => bool) manu_distri;\r\n\r\n    function recievedbydistri(uint _id) public {\r\n        manu_distri[_id] = true;\r\n    }\r\n\r\n    function withdrawFundsByManufacturer(uint _shipmentid) public payable {\r\n        require(manufacRegis[msg.sender] == true, \"you must be a manufacturer\");\r\n        require(manu_distri[_shipmentid],\"shipment not recieved yet\");\r\n        uint256 amount = shipments[_shipmentid].distridetails.price;\r\n        payable(msg.sender).transfer(amount);\r\n    }\r\n\r\n    function withdrawback1(uint _shipmentid) public payable{\r\n        require(distriRegis[msg.sender] == true,\r\n            \"you must be a distributer to continue furthur\");\r\n        require(manu_distri[_shipmentid],\"shipment not recieved yet\");\r\n        //oracle ka function call hoga \r\n        //if false aaya toh hi kar sakte hai\r\n    }\r\n\r\n    function distritoretail(\r\n        uint _shipmentid,\r\n        address _retailAddress,\r\n        string memory _retailName,\r\n        uint256 _retailPhNo,\r\n        uint256 _retailPrice,\r\n        bool _retailInCondition\r\n    )public {\r\n        require(\r\n            distriRegis[msg.sender] == true,\r\n            \"you must be a distributer to continue furthur\"\r\n        );\r\n        shipments[_shipmentid].retaildetails = Retaildetail(retailRegisid[_retailAddress], _retailAddress, _retailName, _retailPhNo, _retailPrice, _retailInCondition);\r\n    }\r\n\r\n    function payTodistributer(uint _shipmentid) public payable {\r\n        require(distriRegis[msg.sender] == true, \"you must be a distributer\");\r\n        require(\r\n            msg.value >= shipments[_shipmentid].retaildetails.price,\r\n            \"please pay the sufficient amount\"\r\n        );\r\n        uint amount = shipments[_shipmentid].retaildetails.price;\r\n        payable(address(this)).transfer(amount);\r\n    }\r\n\r\n    mapping (uint => bool) distri_retailer;\r\n\r\n    function recievedbyretailer(uint _id) public {\r\n        distri_retailer[_id] = true;\r\n    }\r\n\r\n    function withdrawFundsByDistributer(uint _shipmentid) public payable {\r\n        require(retailRegis[msg.sender] == true, \"you must be a retailer\");\r\n        require(distri_retailer[_shipmentid],\"shipment not recieved yet\");\r\n        uint256 amount = shipments[_shipmentid].retaildetails.price;\r\n        payable(msg.sender).transfer(amount);\r\n    }\r\n\r\n    function withdrawback2(uint _shipmentid) public payable{\r\n        require(retailRegis[msg.sender] == true,\r\n            \"you must be a retailer\");\r\n        require(distri_retailer[_shipmentid],\"shipment not recieved yet\");\r\n        //oracle ka function call hoga \r\n        //if false aaya toh hi kar sakte hai\r\n    }\r\n    //----------------------------------> show shipment\r\n\r\n    function shipmentlist() public view returns(shipment[] memory){\r\n        return shipments;\r\n    }\r\n\r\n    function showshipment(uint _shipmentid) public view returns(shipment memory){\r\n        return shipments[_shipmentid-1];\r\n    }\r\n}\r\n\r\n\r\n//",
  "sourcePath": "C:\\Users\\lakshay arora\\logix\\contracts\\logix.sol",
  "compiler": {
    "name": "solc",
    "version": "0.8.19+commit.7dd6d404.Emscripten.clang"
  },
  "schemaVersion": "3.4.14",
  "updatedAt": "2023-11-23T17:56:21.192Z",
  "networkType": "ethereum",
  "devdoc": {
    "kind": "dev",
    "methods": {},
    "version": 1
  },
  "userdoc": {
    "kind": "user",
    "methods": {},
    "version": 1
  }
}