{
  "contractName": "Shipment",
  "abi": [
    {
      "inputs": [],
      "name": "IDd",
      "outputs": [
        {
          "internalType": "uint256",
          "name": "",
          "type": "uint256"
        }
      ],
      "stateMutability": "view",
      "type": "function",
      "constant": true
    },
    {
      "inputs": [],
      "name": "IDm",
      "outputs": [
        {
          "internalType": "uint256",
          "name": "",
          "type": "uint256"
        }
      ],
      "stateMutability": "view",
      "type": "function",
      "constant": true
    },
    {
      "inputs": [],
      "name": "IDr",
      "outputs": [
        {
          "internalType": "uint256",
          "name": "",
          "type": "uint256"
        }
      ],
      "stateMutability": "view",
      "type": "function",
      "constant": true
    },
    {
      "inputs": [
        {
          "internalType": "address",
          "name": "",
          "type": "address"
        }
      ],
      "name": "distriRegis",
      "outputs": [
        {
          "internalType": "bool",
          "name": "",
          "type": "bool"
        }
      ],
      "stateMutability": "view",
      "type": "function",
      "constant": true
    },
    {
      "inputs": [
        {
          "internalType": "address",
          "name": "",
          "type": "address"
        }
      ],
      "name": "distriRegisid",
      "outputs": [
        {
          "internalType": "uint256",
          "name": "",
          "type": "uint256"
        }
      ],
      "stateMutability": "view",
      "type": "function",
      "constant": true
    },
    {
      "inputs": [
        {
          "internalType": "address",
          "name": "",
          "type": "address"
        }
      ],
      "name": "manufacRegis",
      "outputs": [
        {
          "internalType": "bool",
          "name": "",
          "type": "bool"
        }
      ],
      "stateMutability": "view",
      "type": "function",
      "constant": true
    },
    {
      "inputs": [
        {
          "internalType": "address",
          "name": "",
          "type": "address"
        }
      ],
      "name": "manufacRegisid",
      "outputs": [
        {
          "internalType": "uint256",
          "name": "",
          "type": "uint256"
        }
      ],
      "stateMutability": "view",
      "type": "function",
      "constant": true
    },
    {
      "inputs": [
        {
          "internalType": "address",
          "name": "",
          "type": "address"
        }
      ],
      "name": "retailRegis",
      "outputs": [
        {
          "internalType": "bool",
          "name": "",
          "type": "bool"
        }
      ],
      "stateMutability": "view",
      "type": "function",
      "constant": true
    },
    {
      "inputs": [
        {
          "internalType": "address",
          "name": "",
          "type": "address"
        }
      ],
      "name": "retailRegisid",
      "outputs": [
        {
          "internalType": "uint256",
          "name": "",
          "type": "uint256"
        }
      ],
      "stateMutability": "view",
      "type": "function",
      "constant": true
    },
    {
      "inputs": [],
      "name": "shipmentid",
      "outputs": [
        {
          "internalType": "uint256",
          "name": "",
          "type": "uint256"
        }
      ],
      "stateMutability": "view",
      "type": "function",
      "constant": true
    },
    {
      "inputs": [
        {
          "internalType": "uint256",
          "name": "",
          "type": "uint256"
        }
      ],
      "name": "shipments",
      "outputs": [
        {
          "internalType": "uint256",
          "name": "id",
          "type": "uint256"
        },
        {
          "components": [
            {
              "internalType": "uint256",
              "name": "ID",
              "type": "uint256"
            },
            {
              "internalType": "address",
              "name": "add",
              "type": "address"
            },
            {
              "internalType": "string",
              "name": "name",
              "type": "string"
            },
            {
              "internalType": "uint256",
              "name": "phno",
              "type": "uint256"
            },
            {
              "internalType": "string",
              "name": "companyname",
              "type": "string"
            }
          ],
          "internalType": "struct Shipment.Manudetail",
          "name": "manudetails",
          "type": "tuple"
        },
        {
          "components": [
            {
              "internalType": "uint256",
              "name": "ID",
              "type": "uint256"
            },
            {
              "internalType": "address",
              "name": "add",
              "type": "address"
            },
            {
              "internalType": "string",
              "name": "name",
              "type": "string"
            },
            {
              "internalType": "uint256",
              "name": "phno",
              "type": "uint256"
            },
            {
              "internalType": "uint256",
              "name": "price",
              "type": "uint256"
            },
            {
              "internalType": "bool",
              "name": "inicondition",
              "type": "bool"
            }
          ],
          "internalType": "struct Shipment.Distridetail",
          "name": "distridetails",
          "type": "tuple"
        },
        {
          "components": [
            {
              "internalType": "uint256",
              "name": "ID",
              "type": "uint256"
            },
            {
              "internalType": "address",
              "name": "add",
              "type": "address"
            },
            {
              "internalType": "string",
              "name": "name",
              "type": "string"
            },
            {
              "internalType": "uint256",
              "name": "phno",
              "type": "uint256"
            },
            {
              "internalType": "uint256",
              "name": "price",
              "type": "uint256"
            },
            {
              "internalType": "bool",
              "name": "inicondition",
              "type": "bool"
            }
          ],
          "internalType": "struct Shipment.Retaildetail",
          "name": "retaildetails",
          "type": "tuple"
        }
      ],
      "stateMutability": "view",
      "type": "function",
      "constant": true
    },
    {
      "inputs": [
        {
          "internalType": "string",
          "name": "_name",
          "type": "string"
        },
        {
          "internalType": "string",
          "name": "_phno",
          "type": "string"
        },
        {
          "internalType": "string",
          "name": "_companyname",
          "type": "string"
        }
      ],
      "name": "registerManufacturer",
      "outputs": [],
      "stateMutability": "nonpayable",
      "type": "function"
    },
    {
      "inputs": [
        {
          "internalType": "string",
          "name": "_name",
          "type": "string"
        },
        {
          "internalType": "string",
          "name": "_verification",
          "type": "string"
        },
        {
          "internalType": "string",
          "name": "_phno",
          "type": "string"
        }
      ],
      "name": "registerDistributer",
      "outputs": [],
      "stateMutability": "nonpayable",
      "type": "function"
    },
    {
      "inputs": [
        {
          "internalType": "string",
          "name": "_name",
          "type": "string"
        },
        {
          "internalType": "string",
          "name": "_verification",
          "type": "string"
        },
        {
          "internalType": "string",
          "name": "_phno",
          "type": "string"
        }
      ],
      "name": "registerRetailer",
      "outputs": [],
      "stateMutability": "nonpayable",
      "type": "function"
    },
    {
      "inputs": [
        {
          "internalType": "string",
          "name": "_manuName",
          "type": "string"
        },
        {
          "internalType": "uint256",
          "name": "_manuPhNo",
          "type": "uint256"
        },
        {
          "internalType": "string",
          "name": "_manuCompanyName",
          "type": "string"
        },
        {
          "internalType": "address",
          "name": "_distriAddress",
          "type": "address"
        },
        {
          "internalType": "string",
          "name": "_distriName",
          "type": "string"
        },
        {
          "internalType": "uint256",
          "name": "_distriPhNo",
          "type": "uint256"
        },
        {
          "internalType": "uint256",
          "name": "_distriPrice",
          "type": "uint256"
        },
        {
          "internalType": "bool",
          "name": "_distriInCondition",
          "type": "bool"
        }
      ],
      "name": "createShipment",
      "outputs": [],
      "stateMutability": "nonpayable",
      "type": "function"
    },
    {
      "inputs": [
        {
          "internalType": "uint256",
          "name": "_shipmentid",
          "type": "uint256"
        }
      ],
      "name": "payToManufacturer",
      "outputs": [],
      "stateMutability": "payable",
      "type": "function",
      "payable": true
    },
    {
      "inputs": [
        {
          "internalType": "uint256",
          "name": "_shipmentid",
          "type": "uint256"
        }
      ],
      "name": "withdrawFundsByManufacturer",
      "outputs": [],
      "stateMutability": "payable",
      "type": "function",
      "payable": true
    },
    {
      "inputs": [
        {
          "internalType": "uint256",
          "name": "_shipmentid",
          "type": "uint256"
        },
        {
          "internalType": "address",
          "name": "_retailAddress",
          "type": "address"
        },
        {
          "internalType": "string",
          "name": "_retailName",
          "type": "string"
        },
        {
          "internalType": "uint256",
          "name": "_retailPhNo",
          "type": "uint256"
        },
        {
          "internalType": "uint256",
          "name": "_retailPrice",
          "type": "uint256"
        },
        {
          "internalType": "bool",
          "name": "_retailInCondition",
          "type": "bool"
        }
      ],
      "name": "distritoretail",
      "outputs": [],
      "stateMutability": "nonpayable",
      "type": "function"
    },
    {
      "inputs": [
        {
          "internalType": "uint256",
          "name": "_shipmentid",
          "type": "uint256"
        }
      ],
      "name": "payTodistributer",
      "outputs": [],
      "stateMutability": "payable",
      "type": "function",
      "payable": true
    },
    {
      "inputs": [
        {
          "internalType": "uint256",
          "name": "_shipmentid",
          "type": "uint256"
        }
      ],
      "name": "withdrawFundsByDistributer",
      "outputs": [],
      "stateMutability": "payable",
      "type": "function",
      "payable": true
    }
  ],
  "bytecode": "0x60806040526001600055600180556001600255600160035534801561002357600080fd5b50612e1c806100336000396000f3fe60806040526004361061011f5760003560e01c80639362af60116100a0578063c1e713d011610064578063c1e713d0146103bd578063d7a5ccdf146103fa578063dcadd46d14610437578063e3faa8d614610453578063ee3a47f9146104905761011f565b80639362af60146102d3578063940c8deb1461031057806394b2cd731461032c5780639591c1e414610357578063a339e073146103945761011f565b80632e58aebc116100e75780632e58aebc146101fb5780634b568c52146102265780634d6ec6e8146102515780637cdc733f1461027a5780637d344a44146102965761011f565b80630cade868146101245780631d0fc9db1461014d5780631e56ed2b146101765780632ac08a931461019f5780632db7df8a146101df575b600080fd5b34801561013057600080fd5b5061014b60048036038101906101469190612050565b6104bb565b005b34801561015957600080fd5b50610174600480360381019061016f91906120f9565b61069d565b005b34801561018257600080fd5b5061019d600480360381019061019891906120f9565b610912565b005b3480156101ab57600080fd5b506101c660048036038101906101c191906121a0565b610b88565b6040516101d69493929190612417565b60405180910390f35b6101f960048036038101906101f491906121a0565b610fb6565b005b34801561020757600080fd5b5061021061112c565b60405161021d9190612471565b60405180910390f35b34801561023257600080fd5b5061023b611132565b6040516102489190612471565b60405180910390f35b34801561025d57600080fd5b50610278600480360381019061027391906120f9565b611138565b005b610294600480360381019061028f91906121a0565b6113ae565b005b3480156102a257600080fd5b506102bd60048036038101906102b8919061248c565b6114b9565b6040516102ca91906124c8565b60405180910390f35b3480156102df57600080fd5b506102fa60048036038101906102f5919061248c565b6114d9565b6040516103079190612471565b60405180910390f35b61032a600480360381019061032591906121a0565b6114f1565b005b34801561033857600080fd5b506103416115fc565b60405161034e9190612471565b60405180910390f35b34801561036357600080fd5b5061037e6004803603810190610379919061248c565b611602565b60405161038b9190612471565b60405180910390f35b3480156103a057600080fd5b506103bb60048036038101906103b691906124e3565b61161a565b005b3480156103c957600080fd5b506103e460048036038101906103df919061248c565b611b3b565b6040516103f19190612471565b60405180910390f35b34801561040657600080fd5b50610421600480360381019061041c919061248c565b611b53565b60405161042e91906124c8565b60405180910390f35b610451600480360381019061044c91906121a0565b611b73565b005b34801561045f57600080fd5b5061047a6004803603810190610475919061248c565b611ce9565b60405161048791906124c8565b60405180910390f35b34801561049c57600080fd5b506104a5611d09565b6040516104b29190612471565b60405180910390f35b60011515600860003373ffffffffffffffffffffffffffffffffffffffff1673ffffffffffffffffffffffffffffffffffffffff16815260200190815260200160002060009054906101000a900460ff1615151461054e576040517f08c379a000000000000000000000000000000000000000000000000000000000815260040161054590612670565b60405180910390fd5b6040518060c00160405280600c60008873ffffffffffffffffffffffffffffffffffffffff1673ffffffffffffffffffffffffffffffffffffffff1681526020019081526020016000205481526020018673ffffffffffffffffffffffffffffffffffffffff168152602001858152602001848152602001838152602001821515815250601087815481106105e6576105e5612690565b5b9060005260206000209060120201600c016000820151816000015560208201518160010160006101000a81548173ffffffffffffffffffffffffffffffffffffffff021916908373ffffffffffffffffffffffffffffffffffffffff160217905550604082015181600201908161065d91906128cb565b50606082015181600301556080820151816004015560a08201518160050160006101000a81548160ff021916908315150217905550905050505050505050565b60001515600560003373ffffffffffffffffffffffffffffffffffffffff1673ffffffffffffffffffffffffffffffffffffffff16815260200190815260200160002060009054906101000a900460ff16151514610730576040517f08c379a000000000000000000000000000000000000000000000000000000000815260040161072790612a0f565b60405180910390fd5b60046040518060c0016040528060005481526020018581526020013373ffffffffffffffffffffffffffffffffffffffff1681526020018481526020018381526020016001151581525090806001815401808255809150506001900390600052602060002090600602016000909190919091506000820151816000015560208201518160010190816107c291906128cb565b5060408201518160020160006101000a81548173ffffffffffffffffffffffffffffffffffffffff021916908373ffffffffffffffffffffffffffffffffffffffff160217905550606082015181600301908161081f91906128cb565b50608082015181600401908161083591906128cb565b5060a08201518160050160006101000a81548160ff02191690831515021790555050506001600560003373ffffffffffffffffffffffffffffffffffffffff1673ffffffffffffffffffffffffffffffffffffffff16815260200190815260200160002060006101000a81548160ff021916908315150217905550600054600660003373ffffffffffffffffffffffffffffffffffffffff1673ffffffffffffffffffffffffffffffffffffffff1681526020019081526020016000208190555060008081548092919061090890612a5e565b9190505550505050565b60001515600860003373ffffffffffffffffffffffffffffffffffffffff1673ffffffffffffffffffffffffffffffffffffffff16815260200190815260200160002060009054906101000a900460ff161515146109a5576040517f08c379a000000000000000000000000000000000000000000000000000000000815260040161099c90612af2565b60405180910390fd5b60076040518060c0016040528060015481526020018581526020013373ffffffffffffffffffffffffffffffffffffffff168152602001838152602001848152602001600115158152509080600181540180825580915050600190039060005260206000209060060201600090919091909150600082015181600001556020820151816001019081610a3791906128cb565b5060408201518160020160006101000a81548173ffffffffffffffffffffffffffffffffffffffff021916908373ffffffffffffffffffffffffffffffffffffffff1602179055506060820151816003019081610a9491906128cb565b506080820151816004019081610aaa91906128cb565b5060a08201518160050160006101000a81548160ff02191690831515021790555050506001600860003373ffffffffffffffffffffffffffffffffffffffff1673ffffffffffffffffffffffffffffffffffffffff16815260200190815260200160002060006101000a81548160ff021916908315150217905550600154600960003373ffffffffffffffffffffffffffffffffffffffff1673ffffffffffffffffffffffffffffffffffffffff1681526020019081526020016000208190555060016000815480929190610b7e90612a5e565b9190505550505050565b60108181548110610b9857600080fd5b9060005260206000209060120201600091509050806000015490806001016040518060a0016040529081600082015481526020016001820160009054906101000a900473ffffffffffffffffffffffffffffffffffffffff1673ffffffffffffffffffffffffffffffffffffffff1673ffffffffffffffffffffffffffffffffffffffff168152602001600282018054610c31906126ee565b80601f0160208091040260200160405190810160405280929190818152602001828054610c5d906126ee565b8015610caa5780601f10610c7f57610100808354040283529160200191610caa565b820191906000526020600020905b815481529060010190602001808311610c8d57829003601f168201915b5050505050815260200160038201548152602001600482018054610ccd906126ee565b80601f0160208091040260200160405190810160405280929190818152602001828054610cf9906126ee565b8015610d465780601f10610d1b57610100808354040283529160200191610d46565b820191906000526020600020905b815481529060010190602001808311610d2957829003601f168201915b50505050508152505090806006016040518060c0016040529081600082015481526020016001820160009054906101000a900473ffffffffffffffffffffffffffffffffffffffff1673ffffffffffffffffffffffffffffffffffffffff1673ffffffffffffffffffffffffffffffffffffffff168152602001600282018054610dcf906126ee565b80601f0160208091040260200160405190810160405280929190818152602001828054610dfb906126ee565b8015610e485780601f10610e1d57610100808354040283529160200191610e48565b820191906000526020600020905b815481529060010190602001808311610e2b57829003601f168201915b5050505050815260200160038201548152602001600482015481526020016005820160009054906101000a900460ff1615151515815250509080600c016040518060c0016040529081600082015481526020016001820160009054906101000a900473ffffffffffffffffffffffffffffffffffffffff1673ffffffffffffffffffffffffffffffffffffffff1673ffffffffffffffffffffffffffffffffffffffff168152602001600282018054610f00906126ee565b80601f0160208091040260200160405190810160405280929190818152602001828054610f2c906126ee565b8015610f795780601f10610f4e57610100808354040283529160200191610f79565b820191906000526020600020905b815481529060010190602001808311610f5c57829003601f168201915b5050505050815260200160038201548152602001600482015481526020016005820160009054906101000a900460ff161515151581525050905084565b60011515600860003373ffffffffffffffffffffffffffffffffffffffff1673ffffffffffffffffffffffffffffffffffffffff16815260200190815260200160002060009054906101000a900460ff16151514611049576040517f08c379a000000000000000000000000000000000000000000000000000000000815260040161104090612b5e565b60405180910390fd5b6010818154811061105d5761105c612690565b5b9060005260206000209060120201600601600401543410156110b4576040517f08c379a00000000000000000000000000000000000000000000000000000000081526004016110ab90612bca565b60405180910390fd5b6000601082815481106110ca576110c9612690565b5b90600052602060002090601202016006016004015490503073ffffffffffffffffffffffffffffffffffffffff166108fc829081150290604051600060405180830381858888f19350505050158015611127573d6000803e3d6000fd5b505050565b60035481565b60025481565b60001515600b60003373ffffffffffffffffffffffffffffffffffffffff1673ffffffffffffffffffffffffffffffffffffffff16815260200190815260200160002060009054906101000a900460ff161515146111cb576040517f08c379a00000000000000000000000000000000000000000000000000000000081526004016111c290612c5c565b60405180910390fd5b600a6040518060c0016040528060025481526020018581526020013373ffffffffffffffffffffffffffffffffffffffff16815260200183815260200184815260200160011515815250908060018154018082558091505060019003906000526020600020906006020160009091909190915060008201518160000155602082015181600101908161125d91906128cb565b5060408201518160020160006101000a81548173ffffffffffffffffffffffffffffffffffffffff021916908373ffffffffffffffffffffffffffffffffffffffff16021790555060608201518160030190816112ba91906128cb565b5060808201518160040190816112d091906128cb565b5060a08201518160050160006101000a81548160ff02191690831515021790555050506001600b60003373ffffffffffffffffffffffffffffffffffffffff1673ffffffffffffffffffffffffffffffffffffffff16815260200190815260200160002060006101000a81548160ff021916908315150217905550600254600c60003373ffffffffffffffffffffffffffffffffffffffff1673ffffffffffffffffffffffffffffffffffffffff16815260200190815260200160002081905550600260008154809291906113a490612a5e565b9190505550505050565b60011515600b60003373ffffffffffffffffffffffffffffffffffffffff1673ffffffffffffffffffffffffffffffffffffffff16815260200190815260200160002060009054906101000a900460ff16151514611441576040517f08c379a000000000000000000000000000000000000000000000000000000000815260040161143890612cc8565b60405180910390fd5b60006010828154811061145757611456612690565b5b9060005260206000209060120201600c016004015490503373ffffffffffffffffffffffffffffffffffffffff166108fc829081150290604051600060405180830381858888f193505050501580156114b4573d6000803e3d6000fd5b505050565b60086020528060005260406000206000915054906101000a900460ff1681565b60096020528060005260406000206000915090505481565b60011515600560003373ffffffffffffffffffffffffffffffffffffffff1673ffffffffffffffffffffffffffffffffffffffff16815260200190815260200160002060009054906101000a900460ff16151514611584576040517f08c379a000000000000000000000000000000000000000000000000000000000815260040161157b90612d34565b60405180910390fd5b60006010828154811061159a57611599612690565b5b90600052602060002090601202016006016004015490503373ffffffffffffffffffffffffffffffffffffffff166108fc829081150290604051600060405180830381858888f193505050501580156115f7573d6000803e3d6000fd5b505050565b60015481565b60066020528060005260406000206000915090505481565b60011515600560003373ffffffffffffffffffffffffffffffffffffffff1673ffffffffffffffffffffffffffffffffffffffff16815260200190815260200160002060009054906101000a900460ff161515146116ad576040517f08c379a00000000000000000000000000000000000000000000000000000000081526004016116a490612dc6565b60405180910390fd5b6116b5611d0f565b6003548160000181815250506040518060a00160405280600660003373ffffffffffffffffffffffffffffffffffffffff1673ffffffffffffffffffffffffffffffffffffffff1681526020019081526020016000205481526020013373ffffffffffffffffffffffffffffffffffffffff1681526020018a81526020018981526020018881525081602001819052506040518060c00160405280600960008973ffffffffffffffffffffffffffffffffffffffff1673ffffffffffffffffffffffffffffffffffffffff1681526020019081526020016000205481526020018773ffffffffffffffffffffffffffffffffffffffff16815260200186815260200185815260200184815260200183151581525081604001819052506040518060c0016040528060008152602001600073ffffffffffffffffffffffffffffffffffffffff16815260200160405180602001604052806000815250815260200160008152602001600081526020016000151581525081606001819052506010819080600181540180825580915050600190039060005260206000209060120201600090919091909150600082015181600001556020820151816001016000820151816000015560208201518160010160006101000a81548173ffffffffffffffffffffffffffffffffffffffff021916908373ffffffffffffffffffffffffffffffffffffffff16021790555060408201518160020190816118d791906128cb565b506060820151816003015560808201518160040190816118f791906128cb565b5050506040820151816006016000820151816000015560208201518160010160006101000a81548173ffffffffffffffffffffffffffffffffffffffff021916908373ffffffffffffffffffffffffffffffffffffffff160217905550604082015181600201908161196991906128cb565b50606082015181600301556080820151816004015560a08201518160050160006101000a81548160ff0219169083151502179055505050606082015181600c016000820151816000015560208201518160010160006101000a81548173ffffffffffffffffffffffffffffffffffffffff021916908373ffffffffffffffffffffffffffffffffffffffff1602179055506040820151816002019081611a0f91906128cb565b50606082015181600301556080820151816004015560a08201518160050160006101000a81548160ff02191690831515021790555050505050600d60003373ffffffffffffffffffffffffffffffffffffffff1673ffffffffffffffffffffffffffffffffffffffff1681526020019081526020016000206003549080600181540180825580915050600190039060005260206000200160009091909190915055600e60008773ffffffffffffffffffffffffffffffffffffffff1673ffffffffffffffffffffffffffffffffffffffff168152602001908152602001600020600354908060018154018082558091505060019003906000526020600020016000909190919091505560036000815480929190611b2b90612a5e565b9190505550505050505050505050565b600c6020528060005260406000206000915090505481565b60056020528060005260406000206000915054906101000a900460ff1681565b60011515600860003373ffffffffffffffffffffffffffffffffffffffff1673ffffffffffffffffffffffffffffffffffffffff16815260200190815260200160002060009054906101000a900460ff16151514611c06576040517f08c379a0000000000000000000000000000000000000000000000000000000008152600401611bfd90612b5e565b60405180910390fd5b60108181548110611c1a57611c19612690565b5b9060005260206000209060120201600c0160040154341015611c71576040517f08c379a0000000000000000000000000000000000000000000000000000000008152600401611c6890612bca565b60405180910390fd5b600060108281548110611c8757611c86612690565b5b9060005260206000209060120201600c016004015490503073ffffffffffffffffffffffffffffffffffffffff166108fc829081150290604051600060405180830381858888f19350505050158015611ce4573d6000803e3d6000fd5b505050565b600b6020528060005260406000206000915054906101000a900460ff1681565b60005481565b604051806080016040528060008152602001611d29611d49565b8152602001611d36611d8e565b8152602001611d43611ddc565b81525090565b6040518060a0016040528060008152602001600073ffffffffffffffffffffffffffffffffffffffff1681526020016060815260200160008152602001606081525090565b6040518060c0016040528060008152602001600073ffffffffffffffffffffffffffffffffffffffff1681526020016060815260200160008152602001600081526020016000151581525090565b6040518060c0016040528060008152602001600073ffffffffffffffffffffffffffffffffffffffff1681526020016060815260200160008152602001600081526020016000151581525090565b6000604051905090565b600080fd5b600080fd5b6000819050919050565b611e5181611e3e565b8114611e5c57600080fd5b50565b600081359050611e6e81611e48565b92915050565b600073ffffffffffffffffffffffffffffffffffffffff82169050919050565b6000611e9f82611e74565b9050919050565b611eaf81611e94565b8114611eba57600080fd5b50565b600081359050611ecc81611ea6565b92915050565b600080fd5b600080fd5b6000601f19601f8301169050919050565b7f4e487b7100000000000000000000000000000000000000000000000000000000600052604160045260246000fd5b611f2582611edc565b810181811067ffffffffffffffff82111715611f4457611f43611eed565b5b80604052505050565b6000611f57611e2a565b9050611f638282611f1c565b919050565b600067ffffffffffffffff821115611f8357611f82611eed565b5b611f8c82611edc565b9050602081019050919050565b82818337600083830152505050565b6000611fbb611fb684611f68565b611f4d565b905082815260208101848484011115611fd757611fd6611ed7565b5b611fe2848285611f99565b509392505050565b600082601f830112611fff57611ffe611ed2565b5b813561200f848260208601611fa8565b91505092915050565b60008115159050919050565b61202d81612018565b811461203857600080fd5b50565b60008135905061204a81612024565b92915050565b60008060008060008060c0878903121561206d5761206c611e34565b5b600061207b89828a01611e5f565b965050602061208c89828a01611ebd565b955050604087013567ffffffffffffffff8111156120ad576120ac611e39565b5b6120b989828a01611fea565b94505060606120ca89828a01611e5f565b93505060806120db89828a01611e5f565b92505060a06120ec89828a0161203b565b9150509295509295509295565b60008060006060848603121561211257612111611e34565b5b600084013567ffffffffffffffff8111156121305761212f611e39565b5b61213c86828701611fea565b935050602084013567ffffffffffffffff81111561215d5761215c611e39565b5b61216986828701611fea565b925050604084013567ffffffffffffffff81111561218a57612189611e39565b5b61219686828701611fea565b9150509250925092565b6000602082840312156121b6576121b5611e34565b5b60006121c484828501611e5f565b91505092915050565b6121d681611e3e565b82525050565b6121e581611e3e565b82525050565b6121f481611e94565b82525050565b600081519050919050565b600082825260208201905092915050565b60005b83811015612234578082015181840152602081019050612219565b60008484015250505050565b600061224b826121fa565b6122558185612205565b9350612265818560208601612216565b61226e81611edc565b840191505092915050565b600060a08301600083015161229160008601826121dc565b5060208301516122a460208601826121eb565b50604083015184820360408601526122bc8282612240565b91505060608301516122d160608601826121dc565b50608083015184820360808601526122e98282612240565b9150508091505092915050565b6122ff81612018565b82525050565b600060c08301600083015161231d60008601826121dc565b50602083015161233060208601826121eb565b50604083015184820360408601526123488282612240565b915050606083015161235d60608601826121dc565b50608083015161237060808601826121dc565b5060a083015161238360a08601826122f6565b508091505092915050565b600060c0830160008301516123a660008601826121dc565b5060208301516123b960208601826121eb565b50604083015184820360408601526123d18282612240565b91505060608301516123e660608601826121dc565b5060808301516123f960808601826121dc565b5060a083015161240c60a08601826122f6565b508091505092915050565b600060808201905061242c60008301876121cd565b818103602083015261243e8186612279565b905081810360408301526124528185612305565b90508181036060830152612466818461238e565b905095945050505050565b600060208201905061248660008301846121cd565b92915050565b6000602082840312156124a2576124a1611e34565b5b60006124b084828501611ebd565b91505092915050565b6124c281612018565b82525050565b60006020820190506124dd60008301846124b9565b92915050565b600080600080600080600080610100898b03121561250457612503611e34565b5b600089013567ffffffffffffffff81111561252257612521611e39565b5b61252e8b828c01611fea565b985050602061253f8b828c01611e5f565b975050604089013567ffffffffffffffff8111156125605761255f611e39565b5b61256c8b828c01611fea565b965050606061257d8b828c01611ebd565b955050608089013567ffffffffffffffff81111561259e5761259d611e39565b5b6125aa8b828c01611fea565b94505060a06125bb8b828c01611e5f565b93505060c06125cc8b828c01611e5f565b92505060e06125dd8b828c0161203b565b9150509295985092959890939650565b600082825260208201905092915050565b7f796f75206d757374206265206120646973747269627574657220746f20636f6e60008201527f74696e7565206675727468757200000000000000000000000000000000000000602082015250565b600061265a602d836125ed565b9150612665826125fe565b604082019050919050565b600060208201905081810360008301526126898161264d565b9050919050565b7f4e487b7100000000000000000000000000000000000000000000000000000000600052603260045260246000fd5b7f4e487b7100000000000000000000000000000000000000000000000000000000600052602260045260246000fd5b6000600282049050600182168061270657607f821691505b602082108103612719576127186126bf565b5b50919050565b60008190508160005260206000209050919050565b60006020601f8301049050919050565b600082821b905092915050565b6000600883026127817fffffffffffffffffffffffffffffffffffffffffffffffffffffffffffffffff82612744565b61278b8683612744565b95508019841693508086168417925050509392505050565b6000819050919050565b60006127c86127c36127be84611e3e565b6127a3565b611e3e565b9050919050565b6000819050919050565b6127e2836127ad565b6127f66127ee826127cf565b848454612751565b825550505050565b600090565b61280b6127fe565b6128168184846127d9565b505050565b5b8181101561283a5761282f600082612803565b60018101905061281c565b5050565b601f82111561287f576128508161271f565b61285984612734565b81016020851015612868578190505b61287c61287485612734565b83018261281b565b50505b505050565b600082821c905092915050565b60006128a260001984600802612884565b1980831691505092915050565b60006128bb8383612891565b9150826002028217905092915050565b6128d4826121fa565b67ffffffffffffffff8111156128ed576128ec611eed565b5b6128f782546126ee565b61290282828561283e565b600060209050601f8311600181146129355760008415612923578287015190505b61292d85826128af565b865550612995565b601f1984166129438661271f565b60005b8281101561296b57848901518255600182019150602085019450602081019050612946565b868310156129885784890151612984601f891682612891565b8355505b6001600288020188555050505b505050505050565b7f616c72656164792072656769737465726564206173206d616e7566616374757260008201527f6572000000000000000000000000000000000000000000000000000000000000602082015250565b60006129f96022836125ed565b9150612a048261299d565b604082019050919050565b60006020820190508181036000830152612a28816129ec565b9050919050565b7f4e487b7100000000000000000000000000000000000000000000000000000000600052601160045260246000fd5b6000612a6982611e3e565b91507fffffffffffffffffffffffffffffffffffffffffffffffffffffffffffffffff8203612a9b57612a9a612a2f565b5b600182019050919050565b7f616c726561647920726567697374657265642061732072657461696c65720000600082015250565b6000612adc601e836125ed565b9150612ae782612aa6565b602082019050919050565b60006020820190508181036000830152612b0b81612acf565b9050919050565b7f796f75206d757374206265206120646973747269627574657200000000000000600082015250565b6000612b486019836125ed565b9150612b5382612b12565b602082019050919050565b60006020820190508181036000830152612b7781612b3b565b9050919050565b7f706c6561736520706179207468652073756666696369656e7420616d6f756e74600082015250565b6000612bb46020836125ed565b9150612bbf82612b7e565b602082019050919050565b60006020820190508181036000830152612be381612ba7565b9050919050565b7f616c72656164792072656769737465726564206173206469737472696275746560008201527f7200000000000000000000000000000000000000000000000000000000000000602082015250565b6000612c466021836125ed565b9150612c5182612bea565b604082019050919050565b60006020820190508181036000830152612c7581612c39565b9050919050565b7f796f75206d75737420626520612072657461696c657200000000000000000000600082015250565b6000612cb26016836125ed565b9150612cbd82612c7c565b602082019050919050565b60006020820190508181036000830152612ce181612ca5565b9050919050565b7f796f75206d7573742062652061206d616e756661637475726572000000000000600082015250565b6000612d1e601a836125ed565b9150612d2982612ce8565b602082019050919050565b60006020820190508181036000830152612d4d81612d11565b9050919050565b7f796f75206d7573742062652061206d616e75666163747572657220746f20737460008201527f61727420736869706d656e740000000000000000000000000000000000000000602082015250565b6000612db0602c836125ed565b9150612dbb82612d54565b604082019050919050565b60006020820190508181036000830152612ddf81612da3565b905091905056fea2646970667358221220c6fd5f70475bd7beb433d655568b5c0f96ab6ea0718e33e68e75121d83265cfe64736f6c63430008130033",
  "immutableReferences": {},
  "source": "//SPDX-License-Identifier: UNLICENSED\npragma solidity >=0.8.0;\n\ncontract Shipment {\n    // ----------> LOGIN SIGNUP PART\n    uint256 public IDm=1;\n    uint256 public IDd=1;\n    uint256 public IDr=1;\n    uint256 public shipmentid = 1;\n    struct Manufacturer {\n        uint256 IDmanu;\n        string name;\n        address add;\n        string phoneNumber;\n        string companyname;\n        bool registered;\n    }\n\n    struct Distributer {\n        uint256 IDdis;\n        string name;\n        address add;\n        string phoneNumber;\n        string verificationLink;\n        bool registered;\n    }\n\n    struct Retailer {\n        uint256 IDmanu;\n        string name;\n        address add;\n        string phoneNumber;\n        string verificationLink;\n        bool registered;\n    }\n    Manufacturer[] private manufacturers;\n    mapping(address => bool) public manufacRegis;\n    mapping(address => uint) public manufacRegisid;\n\n    Distributer[] private distributers;\n    mapping(address => bool) public distriRegis;\n    mapping(address => uint) public distriRegisid;\n\n    Retailer[] private retailers;\n    mapping(address => bool) public retailRegis;\n    mapping(address => uint) public retailRegisid;\n\n    function registerManufacturer(\n        string memory _name,\n        string memory _phno,\n        string memory _companyname\n    ) public {\n        require(\n            manufacRegis[msg.sender] == false,\n            \"already registered as manufacturer\"\n        );\n        manufacturers.push(\n            Manufacturer(IDm, _name, msg.sender, _phno, _companyname, true)\n        );\n        manufacRegis[msg.sender] = true;\n        manufacRegisid[msg.sender] = IDm;\n        IDm++;\n    }\n\n    function registerDistributer(\n        string memory _name,\n        string memory _verification,\n        string memory _phno\n    ) public {\n        require(\n            distriRegis[msg.sender] == false,\n            \"already registered as retailer\"\n        );\n        distributers.push(\n            Distributer(IDd, _name, msg.sender, _phno, _verification, true)\n        );\n        distriRegis[msg.sender] = true;\n        distriRegisid[msg.sender] = IDd;\n        IDd++;\n    }\n\n    function registerRetailer(\n        string memory _name,\n        string memory _verification,\n        string memory _phno\n    ) public {\n        require(\n            retailRegis[msg.sender] == false,\n            \"already registered as distributer\"\n        );\n        retailers.push(\n            Retailer(IDr, _name, msg.sender, _phno, _verification, true)\n        );\n        retailRegis[msg.sender] = true;\n        retailRegisid[msg.sender] = IDr;\n        IDr++;\n    }\n\n    // ----------->shipment relation\n    mapping(address => uint256[]) manushipment;\n    mapping(address => uint256[]) distrishipment;\n    mapping(address => uint256[]) retailshipment;\n\n    //----------------------------------------------------------\n    struct shipment {\n        uint256 id;\n        Manudetail manudetails;\n        Distridetail distridetails;\n        Retaildetail retaildetails;\n    }\n    shipment[] public shipments;\n\n    struct Manudetail {\n        uint256 ID;\n        address add;\n        string name;\n        uint256 phno;\n        string companyname;\n    }\n\n    struct Distridetail {\n        uint256 ID;\n        address add;\n        string name;\n        uint256 phno;\n        uint256 price;\n        bool inicondition;\n    }\n\n    struct Retaildetail {\n        uint256 ID;\n        address add;\n        string name;\n        uint256 phno;\n        uint256 price;\n        bool inicondition;\n    }\n\n    function createShipment(\n        string memory _manuName,\n        uint256 _manuPhNo,\n        string memory _manuCompanyName,\n        address _distriAddress,\n        string memory _distriName,\n        uint256 _distriPhNo,\n        uint256 _distriPrice,\n        bool _distriInCondition\n    ) public {\n        require(\n            manufacRegis[msg.sender] == true,\n            \"you must be a manufacturer to start shipment\"\n        );\n        shipment memory newShipment;\n        newShipment.id = shipmentid;\n        newShipment.manudetails = Manudetail(\n            manufacRegisid[msg.sender],\n            msg.sender,\n            _manuName,\n            _manuPhNo,\n            _manuCompanyName\n        );\n        newShipment.distridetails = Distridetail(\n            distriRegisid[_distriAddress],\n            _distriAddress,\n            _distriName,\n            _distriPhNo,\n            _distriPrice,\n            _distriInCondition\n        ); \n        newShipment.retaildetails = Retaildetail(\n            0,\n            address(0),\n            \"\",\n            0,\n            0,\n            false\n        );\n        shipments.push(newShipment);\n        manushipment[msg.sender].push(shipmentid);\n        distrishipment[_distriAddress].push(shipmentid);\n        shipmentid++;\n    }\n\n    function payToManufacturer(uint _shipmentid) public payable {\n        require(distriRegis[msg.sender] == true, \"you must be a distributer\");\n        require(\n            msg.value >= shipments[_shipmentid].distridetails.price,\n            \"please pay the sufficient amount\"\n        );\n        uint amount = shipments[_shipmentid].distridetails.price;\n        payable(address(this)).transfer(amount);\n    }\n\n    function withdrawFundsByManufacturer(uint _shipmentid) public payable {\n        require(manufacRegis[msg.sender] == true, \"you must be a manufacturer\");\n        //withdraw condition bachi hai\n        uint256 amount = shipments[_shipmentid].distridetails.price;\n        payable(msg.sender).transfer(amount);\n    }\n\n    function distritoretail(\n        uint _shipmentid,\n        address _retailAddress,\n        string memory _retailName,\n        uint256 _retailPhNo,\n        uint256 _retailPrice,\n        bool _retailInCondition\n    )public {\n        require(\n            distriRegis[msg.sender] == true,\n            \"you must be a distributer to continue furthur\"\n        );\n        shipments[_shipmentid].retaildetails = Retaildetail(retailRegisid[_retailAddress], _retailAddress, _retailName, _retailPhNo, _retailPrice, _retailInCondition);\n    }\n\n    function payTodistributer(uint _shipmentid) public payable {\n        require(distriRegis[msg.sender] == true, \"you must be a distributer\");\n        require(\n            msg.value >= shipments[_shipmentid].retaildetails.price,\n            \"please pay the sufficient amount\"\n        );\n        uint amount = shipments[_shipmentid].retaildetails.price;\n        payable(address(this)).transfer(amount);\n    }\n\n    function withdrawFundsByDistributer(uint _shipmentid) public payable {\n        require(retailRegis[msg.sender] == true, \"you must be a retailer\");\n        //withdraw condition bachi hai\n        uint256 amount = shipments[_shipmentid].retaildetails.price;\n        payable(msg.sender).transfer(amount);\n    }\n}",
  "sourcePath": "/Users/kaustubhsharma/Desktop/logix/contracts/logix.sol",
  "compiler": {
    "name": "solc",
    "version": "0.8.19+commit.7dd6d404.Emscripten.clang"
  },
  "schemaVersion": "3.4.15",
  "updatedAt": "2023-11-03T04:11:24.399Z",
  "networkType": "ethereum",
  "devdoc": {
    "kind": "dev",
    "methods": {},
    "version": 1
  },
  "userdoc": {
    "kind": "user",
    "methods": {},
    "version": 1
  }
}